:020000040002F8
:1060000040830020956402009D640200B562020096
:10601000A1640200A3640200A56402000000000065
:1060200000000000000000000000000015620200F7
:10603000A96402000000000059620200AD64020081
:1060400041690200AF640200456D0200AF640200C6
:10605000AF640200AF640200E9650200AF640200B1
:10606000AF640200AF640200AF640200AF640200DC
:10607000AF640200AF640200AF640200AF640200CC
:10608000AF64020099690200AF640200AF640200CD
:10609000AF640200AF640200016A0200AF64020054
:1060A000AF640200AF640200AF640200AF6402009C
:1060B000AF640200AF6402000000000000000000B6
:1060C000AF640200AF640200AF640200AF6402007C
:1060D000AF640200AF640200AF6402000000000081
:1060E00000000000000000000000000000000000B0
:1060F00000000000000000000000000000000000A0
:10610000000000000000000000000000000000008F
:10611000000000000000000000000000000000007F
:10612000000000000000000000000000000000006F
:10613000000000000000000000000000000000005F
:10614000000000000000000000000000000000004F
:10615000000000000000000000000000000000003F
:10616000000000000000000000000000000000002F
:10617000000000000000000000000000000000001F
:10618000000000000000000000000000000000000F
:1061900000000000000000000000000000000000FF
:1061A00000000000000000000000000000000000EF
:1061B00000000000000000000000000000000000DF
:1061C00000000000000000000000000000000000CF
:1061D00000000000000000000000000000000000BF
:1061E00000000000000000000000000000000000AF
:1061F000000000000000000000000000000000009F
:10620000DFF80CD000F0B2F900480047D9AD020029
:1062100040830020264B19680868B0E8F04F80F3EF
:106220000988BFF36F8F4FF0000080F3118870472B
:10623000000000000748006880F3088862B661B675
:10624000BFF34F8FBFF36F8F4FF4F07080F311885F
:1062500000DF000000600200EFF30980BFF36F8FE2
:10626000134B1A681EF0100F08BF20ED108A20E9AA
:10627000F04F106008B44FF0400080F31188BFF376
:106280004F8FBFF36F8F0AF0C9FF4FF0000080F30C
:10629000118808BC19680868B0E8F04F1EF0100FAC
:1062A00008BFB0EC108A80F30988BFF36F8F704786
:1062B00028580020094B1EF0040F1CBFEFF3098083
:1062C0001847EFF308800649064A884201D89042F1
:1062D00002D88D464FF00000184700004D670200BD
:1062E00040830020407B002030B4044654E8000F77
:1062F0000D4644E80053002BF8D1156030BC7047C0
:1063000030B4044654E8000F40EA010544E8005365
:10631000002BF7D1156030BC704730B4044654E808
:10632000000F00EA010544E80053002BF7D1156087
:1063300030BC704730B4044654E8000F80EA0105D1
:1063400044E80053002BF7D1156030BC704730B4DF
:10635000044654E8000F00EB010544E80053002B0D
:10636000F7D1156030BC704730B4044654E8000FD4
:10637000A0EB010544E80053002BF7D1156030BCB9
:10638000704770B404464FF0000054E8006F0D6889
:10639000AE4207BF44E80023012044E800630E60DA
:1063A000002B1CBF0020F0E770BC704730B40446DF
:1063B00054E8000F88422CBF451A054644E80053B4
:1063C000002BF5D1156030BC7047000030B450E8A8
:1063D000012F93B2C48923448489A34228BF1B1B85
:1063E0000489A34202BFBFF32F8F002007E0C3EA56
:1063F000020340E80134002CE9D14FF001000A60AB
:1064000030BC704750E8012FC2EA024240E8012147
:106410000029F7D1704730B450E8022F1FFAA2F3D9
:10642000C488A34202BFBFF32F8F00200DE0C489B0
:1064300023448489A34228BF1B1BC2EA034340E8CC
:106440000234002CE8D14FF001000A6030BC7047E4
:1064500050E8022FC2EA224240E802210029F7D187
:106460007047034653E8022FD988B2EB324F4FF002
:10647000000017BF92B241EA014142EA014104E043
:106480005A68B2EB324F08BF012043E80212002ADB
:10649000E8D170470648804706480047FEE7FEE718
:1064A000FEE7FEE7FEE7FEE7FEE7FEE7FEE7FEE7C4
:1064B000296A020001620200202A04DB203A00FA65
:1064C00002F1002070479140C2F1200320FA03F34B
:1064D000194390407047000000487047282403008B
:1064E00010B5431A934209D28318881803E010F8B4
:1064F000011D03F8011D521EF9D210BD40EA01032F
:106500009B0703D009E008C9121F08C0042AFAD269
:1065100003E011F8013B00F8013B521EF9D210BD17
:10652000D2B201E000F8012B491EFBD270470022D5
:10653000F6E710B513460A4604461946FFF7F0FF82
:10654000204610BD421C10F8011B0029FBD1801A07
:10655000704730B504460020034600E05B1C9342C0
:1065600003D2E05CCD5C401BF8D030BD064C074D3B
:1065700006E0E06840F0010394E807009847103413
:10658000AC42F6D3FFF740FE483C0300683C0300F2
:1065900070B58C1810F8015B15F0070301D110F8E5
:1065A000013B2A1106D110F8012B03E010F8016B12
:1065B00001F8016B5B1EF9D12B0705D40023521E95
:1065C0000DD401F8013BFAE710F8013BCB1A921CFD
:1065D00003E013F8015B01F8015B521EF9D5A142FB
:1065E000D8D3002070BD00002DE9F04700268AB006
:1065F000DFF85091B0464FF4807501243746069677
:10660000284605F0DFFC38B1D9F80403204203D056
:10661000284605F0CDFC26432D1D64007F1CADB23D
:10662000082FEDD34FF4BE74204605F0CBFC48B1E3
:10663000204605F0BDFC46F0004606AA01210020D8
:1066400005F0A2FC404D16F0FF0F15D001270024E5
:1066500037420DD009EB8401D1F81005D1F810159F
:10666000C0F3042055F82420C1F3014102B1904742
:106670007F00641C082CEBD3002E5FDA4FF0FF3054
:10668000CDF8108054E0281910F8507F90F90000E0
:1066900027F0C008401C3BD007A9404604F0ABFEE1
:1066A00010B34FEA9719404602F068FB55F8207086
:1066B0001FB1B9F1030F03D006E0B9F1030F27D1E1
:1066C00004A9404604F09FFE4FF0A04101EB880072
:1066D000D0F8000706A9C0F3014A404604F08BFE3B
:1066E00018B1BAF1020F03D012E0BAF1030F0FD1C3
:1066F000B9F1030F08D1BAF1020F1DD002214046B3
:1067000005F026FC761CF6B217B149464046B8475C
:10671000641C042CB7D3002E10D06A46012100203F
:1067200005F032FC06990098884207D0069004983C
:10673000002634460790A6E70321E0E70AB0BDE84B
:10674000F0870000006000400C7300201CB58146FB
:1067500005F0EAFE05F01CFD0028FBD12D485FEA9C
:10676000090507682C482D494FF00106A0EB0100F0
:106770004FEAD00006EB004417D0204628A1AA69B2
:1067800005F024FED5E90201CDE90001D5E9002399
:10679000204629A105F032FEE8690090D5E90423DE
:1067A000204633A105F021FE03E020463AA105F082
:1067B00009FE1848001D0068800703D5204643499C
:1067C00005F000FEDFF80881002500BF06FA05F09D
:1067D000384206D058F825201AB120463DA105F0D0
:1067E000F5FD6D1C1A2DF1D3380606D509480C307D
:1067F000026820463AA105F0E9FD380406D50548AF
:106800001030026820463EA105F0E0FD484600F049
:1068100085F8000028ED00E0003D0300783C03000F
:1068200048415244204641554C54206174203078F0
:106830002530385800000000202052303A20203007
:106840007825303858202052313A202030782530B1
:106850003858202052323A202030782530385820BD
:106860002052333A2020307825303858000000007C
:1068700020205231323A2030782530385820204CB0
:10688000523A202030782530385820205053523A40
:106890002030782530385800537461636B20766956
:1068A0006F6C6174696F6E3A20737461636B2070F2
:1068B0006F696E746572206F757473696465207397
:1068C0007461636B20617265612E000014320300F5
:1068D000F859002043617573653A2025732E000036
:1068E0004D656D4D616E616765204661756C742004
:1068F000416464726573733A2030782530385800EB
:10690000427573204661756C7420416464726573CE
:10691000733A20307825303858000000BFF34F8F8D
:1069200005480168054A01F4E06111430160BFF3C5
:106930004F8F00BFFDE700000CED00E00400FA05FA
:1069400070B54FF48076304604F098FE114CB505D2
:1069500060B1304604F099FE0120C5F80803607963
:1069600020B9012060712168002088474FF48276A9
:10697000304604F083FE00280AD0304604F085FE3D
:106980000220C5F808032168BDE8704001200847CF
:1069900070BD0000945900202DE9F041164E4FF4CF
:1069A000A071304605F0AFFE0025EFF311844020C2
:1069B00080F31188D6F804758100304605F0A3FEF7
:1069C0000BF0C4F8381A20F07F46012E07D90BF0DF
:1069D000AFF8022803D000260BF0C4F80543761E5A
:1069E000FAD225B105494FF08050086040BFE0B2AF
:1069F00080F31188BDE8F0810010014004ED00E053
:106A0000074810B500680BF0C5F9012807D1054902
:106A10000007086040BFBFF34F8FBFF36F8F10BDFB
:106A2000DC5A002004ED00E0F0B5B5480023021D5B
:106A30000178101D01254FF0805406290BD11678DE
:106A4000360708D10678C6F30316032E06D0042EA7
:106A500004D0052E02D0062907D00EE0B4F8246336
:106A6000A84FC6F304263E6002E01678360704D12C
:106A70000678C6F30316032E02D0062904D00FE0D1
:106A8000A24FA14E7E670EE01678360708D1067831
:106A9000C6F30316032E06D0042E04D0052E02D012
:106AA000062907D00EE0D4F84462994FC6F3423667
:106AB0003E6002E01678360704D10678C6F3031666
:106AC000032E02D0062906D011E0924E376827F037
:106AD000807737600EE01678360708D10678C6F35F
:106AE0000316032E06D0042E04D0052E02D006294C
:106AF0000AD011E04FF08046C6F80C31C6F81031CC
:106B0000834E361F336002E01678360704D10678CC
:106B1000C6F30316032E02D0062905D00CE07C4FE5
:106B2000032664373E600AE01678360704D10678FB
:106B3000C6F30316032E02D006290DD014E0764FBB
:106B400005263E60744E78363560734E08363360E5
:106B50003F263F1D3E6002E01678360704D10678D6
:106B6000C6F30316052E02D0062957D062E06B4EFD
:106B700036686B4F3E60694E361D36683F1D3E607D
:106B8000664E083636683F1D3E60644E0C363668E9
:106B90003F1D3E60614E103636683F1D3E605F4EC1
:106BA000143636683F1D3E605C4E183636685C4FC2
:106BB00020373E60594E1C3636683F1D3E60574EAA
:106BC000203636683F1D3E60544E243636683F1DE1
:106BD0003E60524E283636683F1D3E604F4E2C3682
:106BE00036683F1D3E604D4E303636684C4F40375C
:106BF0003E604A4E343636683F1D3E60474E38365A
:106C000036683F1D3E60454E3C3636683F1D3E604F
:106C1000424E403636683F1D3E6002E01678360729
:106C200008D10678C6F30316032E06D0042E04D02E
:106C3000052E02D0062907D019E0D4F85812394A97
:106C400001F04F01116002E0117809070FD10078BF
:106C5000C0F30310032803D0042801D0052806D16F
:106C600031480168C90702D06FF001010160D4F812
:106C70003001062808D1D4F83401062804D12B4865
:106C8000016841F48061016022487438016841F470
:106C900070010160BFF34F8FBFF36F8F4FF0102172
:106CA000D1F80002002803DBD1F80402002822DA20
:106CB0001F4A15601F480468002CFCD01524C1F839
:106CC00000420568002DFCD0C1F80442016800298B
:106CD000FCD0136001680029FCD0BFF34F8F0D4832
:106CE000F0380168144A01F4E06111430160BFF318
:106CF0004F8F00BFFDE7124910480860F0BD00004B
:106D0000E00F00F0403501400DF0ADBA00C0074083
:106D10003C050040FCED00E010560040040400106B
:106D200020C50040E40E0040000400403C17004035
:106D300004E5014000E401400400FA050090D0039E
:106D4000E45A002001480068004700009C590020D8
:106D500002E008C8121F08C1002AFAD17047704724
:106D6000002001E001C1121F002AFBD17047000082
:106D70000121202803DA81400548014003E0402832
:106D800002DA2038814009B10120704700207047A5
:106D9000FC06FFBD2DE9F843804643F2020659B9CF
:106DA000694607F0EDF8B04202D008B100F0BCF936
:106DB0009DF80000800744D40021404607F01CF9EC
:106DC00005003ED0112D3CD01F482049401AC7086D
:106DD000022000EB07440D2D0AD00B2D1DD0B5422B
:106DE0001FD11B4920464246BDE8F84305F0EEBAE4
:106DF00020464246174905F0E9FA1321404676DF5E
:106E000000281ED005F02EFE024601B02046434663
:106E1000BDE8F04310A105F0E0BA204642461C4907
:106E2000E2E7284605F01EFE0246012000EB07407F
:106E3000434618A105F0D1FA2846BDE8F84300F012
:106E400073B9BDE8F8830000B03C0300783C030050
:106E5000542B0300E02A030073645F626C655F6774
:106E600061705F646973636F6E6E65637428292057
:106E700072657475726E6564202573206F6E206371
:106E80006F6E6E5F68616E646C652025642E000015
:106E9000A02B0300417373657274696E672E2070B6
:106EA0006D5F636F6E6E5F73656375726528292011
:106EB00072657475726E6564202573206F6E206331
:106EC0006F6E6E5F68616E646C652025642E0000D5
:106ED00010B560B159B102780B785208B2EB530F7C
:106EE00005D10622401C491CFFF733FB08B10020E6
:106EF00010BD012010BD800701D000207047012087
:106F00007047C3688B4206D811440069491E81420C
:106F100001D8012070470020704710B501220221DE
:106F2000002001F01BFD08B1072810D10722022123
:106F3000012001F013FD08B1072808D100210A2221
:106F4000084601F00BFD08B1072800D1002010BD54
:106F500010B5007860B10C480C49401AC0080321F4
:106F600001EB00400AA105F02DFA07F093FD03E0C4
:106F700003210B4800F0B3FD002803D0BDE810400A
:106F800000F0D2B810BD0000103D0300783C0300B3
:106F9000457261736520626F6E64732100000000AA
:106FA000805B002070B58CB015460E4600236C4601
:106FB000C3F10F01415CE1545B1C102BF8D30D2190
:106FC00004F11000FFF7B3FA0020C0F10F02315CAA
:106FD0002244401C11740328F7D3684646DF002082
:106FE000C0F10F01214491F820102954401C0328BE
:106FF000F6D30CB070BD022001F0BABB0149C978CC
:1070000000F0CCBF2059002070B50024064D06E0EA
:107010006868012110F8340005F0A6FD641C28788A
:107020008442F5D3002070BDA8590020F8B515465C
:107030000C460646052A01D20720F8BD05F090FE51
:1070400018B905F055FE0028F7D1124900224E600C
:107050000C708D60C1E90422C1E906220E4D0DE0DD
:1070600006EBC4002968009181788DF80110007842
:107070000A4A694605F0CAFD0028DED1641EE4B262
:10708000EED2BDE8F84004480021054A001D00F09A
:1070900063B80000A8590020CC2003000DA0020016
:1070A0007993020072B605F03FFA00BF05F070F860
:1070B0000028FBD111481249401AC408012000EBF6
:1070C000044010A105F07EF911480068C00700D007
:1070D00000BE022000EB04400EA105F073F9BFF3DF
:1070E0004F8F0B48E43801680E4A01F4E061114308
:1070F0000160BFF34F8F00BFFDE70000103D0300AC
:10710000783C0300466174616C206572726F720096
:10711000F0ED00E053797374656D207265736574EA
:10712000000000000400FA050EB500210091CDE931
:1071300001106A4644F20100FFF7B4FF0EBD10B51E
:1071400008F074F9017B002905D001688268BDE868
:1071500010400846104710BD38B5046800251AB124
:1071600010B1207B20B901E0072038BD606808B16C
:10717000082038BD00202060A060E06069B10120D7
:10718000A26008490246009123464FF47A7106A096
:107190000AF034FE606010B102E00020F0E70E2536
:1071A000284638BD3F7102002000000000207047D3
:1071B0002DE9FC41466815460F46044656B1207B32
:1071C000002809D030460AF07BFE002804D00020B9
:1071D000BDE8FC810820FBE7EFF30580256008B3DC
:1071E0000025019501AB3A460921304600950AF089
:1071F0003FFE01282BD10AF0AFFC024601AB06216D
:10720000304600950AF034FE012820D1019800B3E1
:1072100011494FF08050086040BFBFF34F8FBFF35C
:107220006F8F16E0022500233A4604213046009570
:107230000AF01EFE01280AD10AF088FC024600234B
:107240000121304600950AF013FE012801D00420E8
:10725000BEE701202073BAE704ED00E07CB50446E8
:107260004068002500280CD0EFF30581B9B10195E5
:1072700001AB0022082100950AF0FAFD012817D180
:1072800001E008207CBD0198A0B10C494FF080506E
:10729000086040BFBFF34F8FBFF36F8F0AE002213A
:1072A000002300911A4603210AF0E2FD012801D0D3
:1072B00004207CBD257300207CBD000004ED00E0AF
:1072C00030B5EFF3108172B60D4A9468012324B1F2
:1072D0000370002900D162B630BD93604FF0E02307
:1072E000D3F88051074C25401560C3F88041D3F88E
:1072F000844154605A17C3F8842100220270E8E7E1
:10730000D8730020FC06FFBD0B498A68002A11D003
:1073100000280FD1EFF3108072B60B684FF0E02217
:10732000C2F800314B68C2F8043100228A6000289C
:1073300000D162B670470000D873002038B50AF05B
:1073400005FC1D4C02250246009500230121A06882
:107350000AF08EFD012802D00420FFF7E5FE0AF0B6
:10736000F5FB0246009500230121E0680AF080FD4C
:10737000012802D00420FFF7D7FE0AF0E7FB0246FF
:1073800000950023012120690AF072FD012802D036
:107390000420FFF7C9FE0AF0D9FB0246009500233E
:1073A000012160690AF064FD012804D0BDE838407D
:1073B0000420FFF7B9BE38BDB85700202DE9F041D1
:1073C000064608680C46411C4FF0A0474FF00105E7
:1073D00006D005FA00F1C7F80815206804F0A4FDEE
:1073E0006068411C02D0002104F08CFD3168A06966
:1073F000C1F82405607D227D31681043C1F86C0519
:10740000D4E900123068C0F81425C0F80C15207DAE
:10741000012815D1A068411C02D0002104F072FDA2
:10742000E068411C05D08540C7F80855E06804F0C5
:107430007BFDD4E902123068C0F80825C0F81015A9
:10744000BDE8F0812DE9F041064608680C46411C74
:107450004FF0A0474FF0010506D005FA00F1C7F83C
:107460000815206804F06AFD6068411C02D0002104
:1074700004F051FD3168A069C1F82405607D217DCB
:1074800032680843C2F86C05D4E900123068C0F8CD
:107490000C15C0F81425207D012815D1A068411CC9
:1074A00002D0002104F037FDE068411C05D0854082
:1074B000C7F80855E06804F041FDD4E902123068CD
:1074C000C0F80825C0F81015BDE8F08103F04CBBEA
:1074D0002DE9F047814605884A484FF000088AB0F8
:1074E00001784246284600F071FD99F805004007F2
:1074F00001D4002176E005F58077B8B201AB012216
:10750000072106F0B1F904003F48404A4FF001015D
:10751000A0EB02004FEAD00001EB00460AD0204663
:1075200005F0A0FA024630462B46394904F055FFD3
:10753000214629E0284603F0A3F84FF6FF710446E0
:1075400088422BD18A46029803F004F8044650453D
:1075500010D00146284603F073F82846FFF74EFD89
:10756000E0B9284608F0BCFB2846FFF747FD002895
:10757000BFD013E006F044FB0446504508D1304626
:1075800024A104F01FFF0421284608F0D7FBB0E730
:107590000146284603F054F84FF00108B8B22246DD
:1075A000072106F0D9F907001BD0862F1ED005F061
:1075B00059FA024630462B462349009404F015FF41
:1075C0003946284608F0BAFB0021484606F040F844
:1075D000B8F1000F02D0204603F03CF80AB0BDE835
:1075E000F0870121484606F033F8F7E718221749DB
:1075F00003A8FEF775FFADF80E5003A802F044F89B
:10760000EFE7000020590020B83C0300783C03005D
:10761000582E0300436F756C64206E6F7420616C8C
:107620006C6F63617465206E657720706565725F4D
:10763000696420666F7220696E636F6D696E672082
:10764000626F6E642E000000042F030064200300AC
:1076500070B5044690B0087B0D468DF838002021A7
:1076600005A8FEF764FF42F61920ADF814000120CA
:10767000ADF81800ADF81A000EA80790617C9DF8CF
:107680002100A21D61F3041040F002008DF82100DA
:10769000A87B8DF82700687B8DF82500A08805A9B8
:1076A00001F0A4FB00281CD1A968E1B10FA801F0EA
:1076B00018F8064614216846FEF739FF42F608100E
:1076C000ADF80000E87B8DF806000FA8ADF80A6061
:1076D000ADF80E600490E08804F10E02694601F0F6
:1076E000F5FD10B070BD0020E081FAE710B50D493E
:1076F0000D4808F09AFBC1B24FF6FE720B4800F03D
:1077000005FB00280DD008280BD0132809D011281C
:1077100007D043F20141884203D0BDE81040FFF793
:1077200003BD10BDD85D0020D4570020FC5A0020B6
:107730000A4601461046AEDF70472DE9FC4700259A
:1077400017880646158090F82D001446894630B1FA
:107750003A462146484600F063FC051E09D1B07840
:107760004FF00C0A18B32088C846001DB84202D951
:107770005046BDE8FC87684679DF0028F9D12088AB
:10778000032108F8001020881921401C80B22080B5
:1077900008F800102088401C80B2208000EB08010F
:1077A000BDF8000009F09EF9218808442080F07897
:1077B0000222C8B1218896F9033001F1030C484632
:1077C000BC45D5D8425421884FF0010C491C89B2E0
:1077D000218000F801C02188491C89B2218009F864
:1077E00001302088401C20807068B8B1218890F951
:1077F000003001F1030C4846BC45B9D842542188F9
:107800000A22491C89B2218042542188491C89B22C
:10781000218009F801302088401C2080308950B137
:10782000CDE900474B460622022106F1080009F087
:1078300045FA051E9DD1308A50B1CDE900474B462F
:107840000722032106F1100009F038FA051E90D135
:10785000308B50B1CDE900474B461522142106F17B
:10786000180009F02BFA051E83D1306A30B13B466F
:107870002246494601F0E3FB051EDBD1706A30B1B8
:107880003B462246494603F08FFB051ED2D196F8AF
:107890002C0038B13B4622464946304608F098FB5A
:1078A000051EC7D1307838B13B462246494630469E
:1078B00003F008FC051EBDD128465AE718B504465A
:1078C0000020ADF8000013466A46204600F006F896
:1078D000002802D0BDF80000204418BD70B588B162
:1078E00082B10024158803E0065D641C3444A4B210
:1078F000A54203D8061976789E4201D08C42F3D374
:107900008C4201D3002070BDA11C1180005D401E7F
:1079100080B270BD80F83010704700002DE9F0474C
:107920000D00044606D02CB195F87A0000260128F7
:1079300003D006E00E20BDE8F08795F898000128F6
:1079400029D0D5F8A000042825D0D5F89C0004281B
:1079500021D04FF00109A6702C2205F17801201DDD
:10796000FEF7BEFD84F83060D5F8A4006063D5F85A
:10797000A800A0634FF6FF70A4F8480204F50D704C
:10798000C4F84402C4F84A62A4F84E6284F8506213
:10799000207810B104E00720CDE7FF2084F85400E0
:1079A00004F15501C4F8341294F82400EE274FF086
:1079B0001F0801281FD0A4F8388200BF04F50E72FA
:1079C0002846FFF7BAFE0028B5D115F13C0F18D0B4
:1079D00004F24311C4F83C1294F8240001280DD09D
:1079E000A4F8408204F5107205F13C00FFF7A5FEF3
:1079F0000028A0D109E0A4F83872DFE7A4F84072AB
:107A0000F0E7C4F83C62A4F8406284F85190208BFF
:107A1000A4F8480084F83C90266484F850606069BB
:107A200060644D4604F13C02002104F1540072DF11
:107A3000002880D125707EE710B50288102A1BD05F
:107A4000112A20D0262A1DD1007A0C46012801D007
:107A5000022817D1A0780521401CB0FBF1F201FBF0
:107A60001201204600F03BF800280BD0A16B002942
:107A700008D0BDE810400847C27B012A02D18088A7
:107A8000A1F8480210BD0C46002184F852128088EB
:107A9000B4F848128842F5D120790028F2D10121AA
:107AA000DFE7704710B5044690F8540074DF0120FA
:107AB00084F85202002084F8540284F85000062111
:107AC000204601F0B5FF002808D1A178204600F03B
:107AD00006F810B1A16B01B18847002010BD2DE957
:107AE000F05F044600780F4698B1A7700025C4F8EF
:107AF0004A52A4F84E5284F85052A079012608B197
:107B0000012F09D0E07980B1012F05D0022F03D0D9
:107B10000BE00820BDE8F09F616B21B184F8516251
:107B20000820884701E084F8515204F24B210020DC
:107B30000A5C0AB1304603E0401C0628F8D3002056
:107B40004FF002084FF0030B012F06D0022F0CD08C
:107B5000032F0FD0042F15D110E0A17929B194F88B
:107B6000241011B908B130460DE0E17911B108B126
:107B7000404608E0207A08B1584604E0607A08B12F
:107B8000042000E02846A070616B41B1032801D0B9
:107B9000042804D1607910B194F85202A0B184F89D
:107BA000535204F13C0018210746FEF7C0FC04F1D3
:107BB0002C0084F83C60814606F04EF958B194F8E8
:107BC0002C0084F8510008E084F8545284F8536281
:107BD00007208847E5E784F8516094F8240050B105
:107BE000484606F039F920B194F8280084F852008C
:107BF00001E084F8526084F85050A27804F24A21DF
:107C000004F50D794FF0060A052A62D2DFE802F08A
:107C10007A030F22410084F83160C4F84452C4E969
:107C2000101584F83C808020A4F8480053E084F8C4
:107C3000318094F82420384612B10722027001E006
:107C400080F800B0228A8281C4F844524160E16821
:107C5000B96040E06069B860208BB88194F8240076
:107C60003D4610B184F83CA001E084F83C60204619
:107C700009F000F850B185F814800421204601F085
:107C8000D7FE30BB052184F8311020E084F831B0F4
:107C90001DE0E069B860208CB88194F824003D466E
:107CA00010B184F83CA001E084F83C60204608F064
:107CB000E1FF48B185F814800421204601F0B8FEA8
:107CC00038B984F831A002E0042084F83100C4F807
:107CD0004492A07878B13A4604F15400D4F84412A2
:107CE00072DF00287FF416AF94F8301094F8540037
:107CF00073DF0028F6D1616B11B194F83100884729
:107D0000002007E784F83150F5E70000F7B594B09C
:107D1000174605003CD0287C9DF85410002488426A
:107D200052D000264FF0010E0D9615A8ADF834E0A4
:107D30000E90ADF83660E9880DAA4FF6FF70ACDF03
:107D4000040026D19DF854002874687CA0B30F96D7
:107D5000109611961296E888ADF83C00BDF83600F2
:107D6000ADF840000DA811900E981290A7F57F4035
:107D70008DF83EE0FE3805D039460FA8FFF7D8FC55
:107D8000044621E0684600F09DF800256F460FE0AC
:107D90000E2017B0F0BD00BF07EB4506B08800F01D
:107DA000DFF8022803D144B10FA9B088AEDF6D1C03
:107DB0000098A842F0D807E005E0B1880FA8FFF7C7
:107DC000B7FC0446F3E708242046E2E738B50D4641
:107DD000040018D0BDB12868206028796074FF20A5
:107DE000207401208DF8020041F60F00ADF800006C
:107DF000221D69460120A8DF002803D1294620461C
:107E0000FFF726FC38BD0E2038BD38B5002924D038
:107E1000002822D00288502A1FD10546487C0C46F3
:107E200000281AD0E9886289A81D914215D141899C
:107E3000022912D1216800290FD00C3000F04DFC2E
:107E400008B1002000E001208DF80000A888ADF8FE
:107E50000200226869462046904738BD70B504008C
:107E600012D001461C221448FEF73AFB1248134D6B
:107E70000560206850B17ADF002806D120680168CB
:107E800029604068686005E00E2070BD0B487BDF0C
:107E90000028FAD108484FF6FF711438084A20F834
:107EA000041B0549343901600021FFF755F900280A
:107EB000EBD0032070BD0000806F00207C580020B4
:107EC0000D0C03000149496801F09AB89C6F00202D
:107ED00010B5044600F09AF8002805D02146BDE808
:107EE0001040024803F0EBB910BD0000AC6F002059
:107EF00070B515460E46044608F0C8FE002809D0A5
:107F0000054800EB840080692A463146BDE8704090
:107F100001F0BABD70BD00009C6F002010B5044692
:107F200000F074F8002805D02146BDE81040024852
:107F300003F0C5B910BD0000B06F002070B5054654
:107F4000002400F063F838B12946044803F0B7F97B
:107F500008B1022400E00124204670BDA86F002073
:107F600070B50546002400F051F838B129460448A0
:107F700003F0A5F908B1022400E00124204670BDF9
:107F8000A46F002010B51821034803F073F91828D6
:107F900000D0C0B210BD00009C6F002070B5054637
:107FA0000C46084608F072FE60B1284600F02EF834
:107FB00040B10548294600EB8400BDE87040183008
:107FC00003F07DB9002070BD9C6F002070B50546A0
:107FD00014460E46084608F059FE002812D02846DE
:107FE00000F014F800280DD00748294600EB860061
:107FF00018301CB1BDE8704003F06CB9BDE87040AA
:1080000003F01DB970BD00009C6F0020142801D33F
:10801000002070470146014803F051B9A06F0020CD
:108020007CB5054608880C460930904201D90C20E1
:108030007CBD68466DDF0028FAD12188082068548D
:1080400020881B21401C80B2208029542088401C9D
:1080500080B220802844DDF801100160BDF80510D1
:1080600081802088801D80B220809DF80010490802
:1080700000D0012129542088401C208000207CBD94
:108080001FB5044601208DF8060041F60A00ADF840
:108090000400494A01A90120A8DF00287DD12288D7
:1080A0005AB14548801C009094F83C3042F6292093
:1080B000616800F06BFE00287BD122895AB13E48EE
:1080C0000A30009094F83C3042F62420E16800F039
:1080D0005DFE00286DD1228A5AB1374812300090D7
:1080E00094F83C3042F62520616900F04FFE0028EC
:1080F0005FD1228B5AB130481A30009094F83C304E
:1081000042F62720E16900F041FE002851D1228C7F
:108110005AB129482230009094F83C3042F626208B
:10812000616A00F033FE002843D1228D5AB1224803
:108130002A30009094F83C3042F62820E16A00F0A2
:1081400025FE002835D1216B79B102A808F0CCFAC0
:10815000194808223230009094F83C3002A942F6C7
:10816000232000F013FE002823D1606B60B1124978
:108170003A3100910279016894F83C3042F62A20A5
:1081800000F004FE002814D1A16B89B102A806F00A
:10819000F0FC09484230009000E00AE094F83C30DE
:1081A000072202A942F6502000F0F0FD002800D17D
:1081B000002004B010BD00003E59002038B50188F1
:1081C0000446212932D015DC1F48204A204DA0EB5F
:1081D00002004FEAD0004FF0030202EB00401029EA
:1081E00010D0112905D11BA104F0ECF84FF6FF7057
:1081F000688038BD3B2923D05629FAD180881321C5
:1082000076DF0DE017A104F0DDF8072000F0C8FBD1
:1082100008B1FEF789FFA1886980154803F0B6F917
:108220000028E6D0BDE83840FEF77EBF0020009071
:10823000A08869468FDF0028DBD0FEF775FF38BDC8
:108240008088132176DFEBE7103D0300783C0300C4
:10825000B8570020446973636F6E6E65637465641C
:1082600000000000436F6E6E65637465640000007B
:10827000745B002010B51A4C0188606810290ED07C
:1082800011292BD1401E606028D1FEF746FE002840
:1082900024D02168002921D0BDE810400847D0B97A
:1082A00000210122084600F059FB08B107280FD130
:1082B00007220221012000F051FB08B1072807D155
:1082C00004220221002000F049FB20B1072802D03F
:1082D000216801B188476068401C606010BD0000E3
:1082E000085800202DE9F04701883B4E40F2F31971
:1082F0004FF6FF7510291BD011293ED0122954D0FA
:10830000502946D1C188F289841D914241D16189A9
:1083100002293ED18688304602F060FA050038D046
:1083200004F10C0000F0D9F9A8B3294630464EE01C
:10833000C17B8788044601292BD1A846284602F034
:108340004DFA050017D02F8000202872234843469D
:108350004A460168C5F80A104068C5F80E0004F1E5
:10836000100105F10A0002F0F9FA6872F08900289C
:108370000FD129462AE0042013E0808802F02EFA6B
:10838000040006D06068FEF769FF08B107F0BAFC88
:108390002580BDE8F087FFE76868FEF75FFF0028EB
:1083A000F7D0BDE8F04707F0ADBC878806463846F1
:1083B00002F014FA0400ECD02B464A4606F10801FC
:1083C00004F10A0002F0CAFA607221463846BDE89C
:1083D000F04700F07BBE0000806F00207C5800203A
:1083E0002DE9F04F0746858802883D48012197B066
:1083F0008346102A09D0112A49D01A2A6CD1387A1A
:10840000B1EB101F45D2012244E0354C083CA06876
:10841000C0430B9061680BA802F075FF0B990CA884
:1084200000F0EEFD2C220CA96846FEF759F8002654
:10843000E946A04610E000BF09EB46005FF00004EB
:10844000B0F804A008EB84005146001D02F0F7FECE
:10845000641C1D2CF6D3761C0098B042ECD8142D69
:1084600005D317B00420BDE8F04FFEF75DBE2946E6
:10847000584602F02FFF294608F1040002F02AFFB7
:10848000F87B012828D016482946001D15E029460A
:108490001AE000220221B1EB101F01D2012600E0F8
:1084A00000260F49083901F11000041D294682B148
:1084B00002F010FF36B12946204617B0BDE8F04F54
:1084C00002F008BF2946204617B0BDE8F04F02F081
:1084D000B6BE02F0B4FEF5E717B0BDE8F08F0000BD
:1084E000A46F002010B504460748007800280AD081
:1084F000204601F0A1FF204607F036FE2046BDE8E9
:10850000104001F007BC10BDB058002030B5044643
:10851000008C8BB0A0F57F42FF3A23D005AA2046FD
:1085200001F0FEFE0546ADF800000020019002902B
:10853000039004902189ADF804100121ADF80800E2
:108540008DF8061005A8CDF80CD00490208C01A958
:10855000AEDF002804D1BDF80010A94200D00C20E5
:108560000BB030BD0820FBE7F0B504468FB00868BB
:108570002060087960714FF6FF702084002084F835
:108580002200A4F84C001427012684F84E708DF8C0
:10859000226041F60D000D46ADF82000A21D08A98D
:1085A0003046A8DF002847D120216846FDF7BFFFED
:1085B00042F63720ADF80000ADF8047009AA00219A
:1085C000204601F0ADFEADF8060009A802908DF836
:1085D0000C609DF80D0004F1080240F010008DF8C9
:1085E0000D00287B8DF81300E088694600F0FEFB43
:1085F000002821D1A868F0B120216846FDF797FF37
:1086000042F63820ADF80460ADF80000ADF8066021
:10861000A86802909DF80D0004F1100240F00200DD
:108620008DF80D00687B8DF81100E088694600F038
:10863000DDFB002800D100200FB0F0BD38B5028866
:10864000102A15D0112A15D0502A16D130F8062F2D
:108650008B899A4211D10C46418902290DD121689A
:1086600000290AD00C3000F038F838B1002006E0BC
:10867000808801E04FF6FF70088438BD01208DF836
:108680000000226869462046904738BD70B5044610
:10869000B0F84C000D4614280AD104F12601262218
:1086A000881EFDF71DFFB4F84C00401EA4F84C00D6
:1086B000B4F84C0004EB4001401CA4F84C008D843D
:1086C00070BD80F82210704770B504460D4608460C
:1086D000FDF738FF2080656070BD007800F0010074
:1086E00070470A7802704978417002207047000094
:1086F0000149085C70470000DE1E03000649095C62
:108700004FF0A040D0F81005C84010F0010000D094
:10871000012080F001007047DE1E03002DE9FC41BE
:108720000646C0074FF000050ED0104F002401226E
:10873000385D009500231146019503F089FB641C08
:10874000042CF4D300F046F8B0070DD5074E0024F2
:10875000361D0022305D032300951146019503F07C
:1087600077FB641C042CF4D3BDE8FC81DA1E030003
:1087700007490B5C4FF0A041D1F804250120984037
:1087800020EA0203C1F808351040C1F80C05704713
:10879000DA1E03000249085C012103F0EABB000075
:1087A000DA1E03000249085C002103F0E2BB00006E
:1087B000DA1E03000649095C4FF0A040D0F804051A
:1087C000C84010F0010000D0012080F00100704787
:1087D000DA1E030010B500242046FFF7DBFF641CFF
:1087E000042CF9D310BD10B500242046FFF7DAFFA2
:1087F000641C042CF9D310BD10B50246064B4FF093
:10880000FF3000215C5C944201D1084610BD491C38
:108810000429F7D310BD0000DE1E030070B50C4E16
:108820000C004FF0000530600BD0012000F06AF81A
:1088300008B1022004E0002000F064F800B10B2031
:108840002070706810B9FEF768FB0546284670BDB9
:108850000858002010B5002000F0CCF908B1062817
:1088600006D1012000F0C6F908B1062800D1002089
:1088700010BD00002DE9F0470D468146FFF7BCFF13
:108880000446042836D2DFF874801B481C4EA8F139
:108890000C0725B3012D0ED0022D2BD104EB440083
:1088A00030444578002D25D0B968002922D02846CB
:1088B000BDE8F047084704EB4401755C0E4471784D
:1088C00049B10E4A4FF48061093A8068FEF770FCA6
:1088D00008B987F80390B17808F80410E2E78068D7
:1088E000FEF7BCFC04EB4401314418F804008D7819
:1088F000A842D7D0BDE8F087E41E0300045800204A
:10890000485E0020042801D2FFF7F8BE002070471F
:108910000146104810B54088042907D007290ED019
:108920000A2915D1BDE8104007F00ABC132176DFF3
:108930000CE000280CD0BDE81040FEF7F5BBA0F518
:108940007F41FF3904D10448FFF7ACF80828F0D183
:1089500010BD0000B8570020805B002070B50023D8
:10896000042810D20D4D00EB4004012A02D1012948
:108970000CD00022094E00EB4000304461B10129C7
:1089800006D0022906D00723184670BD0E30C2B2A9
:108990002A55F9E74270F7E78270F5E7485E002054
:1089A000044A014600201279D20702D0084600F09E
:1089B0004DB87047F857002070B506461E48002491
:1089C000C0E90161B0071FD50025012211462846E4
:1089D000FFF7C4FF6D1C0446042D02D2002CF4D016
:1089E00012E08CB9332204211448FEF71FFB040067
:1089F0000AD1FEF709FB040006D11048104A0021F5
:108A0000001FFEF7A9FB0446F00712D00120FFF774
:108A100085FE74B909480B4A00210C38FEF79CFB0F
:108A2000040006D10548084A01210838FEF794FBE6
:108A30000446204670BD0000F8570020F01E0300D9
:108A4000C18C020009AA0200F76F02002DE9F05F55
:108A5000654C05460026607818B10020607001F072
:108A6000BBFF624F4FF47A6B4FF4FA7A4FF47A7887
:108A70004FF00109182D61D2DFE805F00C13132F18
:108A80003E4B61666A726A72B37B7B7B7B7BA1A47F
:108A9000A7AAB3B301F0A0FF3868FEF7DFFB0646D4
:108AA00054E00020FFF786FE00284FF0000008D0B9
:108AB000FFF770FE022D02D14FF4E16009E0584645
:108AC00007E0FFF76FFE022D01D1C82001E04FF44F
:108AD000C87025700AEB802129E00020FFF76AFEAC
:108AE00000284FF0000004D0FFF754FE4FF4487008
:108AF000EFE7FFF757FEE8E70020FFF75BFE0028EF
:108B00004FF0000002D0FFF745FED8E7FFF74AFE1E
:108B1000DDE70020FFF74EFE00284FF0000002D0F6
:108B2000FFF738FE01E0FFF73DFE31492570B1FB4C
:108B3000F8F100223868FEF73BFB06463CE00020D7
:108B4000FFF716FE257008E0002047E0257033E0AF
:108B500084F801900120FFF70BFE00226621E9E76F
:108B600084F801900120FFF703FE00224FF400710A
:108B7000E0E77868FEF772FB0646D5F1110000D0F9
:108B80002EB10220FFF706FE0020A07014E001289D
:108B90000DD980B200EBC00101EB00110AEB4131AD
:108BA00091FBF8F100227868FEF702FB06460220EE
:108BB000FFF7F8FD84F802903046BDE8F09F01F021
:108BC0000BFFC3E701F008FFBEE701F005FF04E07B
:108BD00001F002FF0020FFF7E5FD0120FFF7E2FDB5
:108BE000B4E7FFF700FEB1E7F8570020E41E0300EA
:108BF000F4210300012108F033BB00002DE9F84304
:108C00000546861C00208DF8000090460F464FF068
:108C100001096846FEF754FB1B4C20683860D4E914
:108C20000001401AA16804F21C47081A0EE0012155
:108C3000384602F062FB02F079F80146384602F04D
:108C40005CFBD4E90001401AA168081A401C864266
:108C5000EDD8B8F1000F03D0052065F3891002E0CC
:108C6000062065F39F50A2682168114004EB810142
:108C7000C8602068304420609DF80000FEF744FB87
:108C80004846BDE8F88300001C77002030B48268B5
:108C90000468531C8360A154D0E901128A4202D3B4
:108CA00030BC02F09ABD30BC70470000034803C8D6
:108CB000814201D101207047002070471C770020BD
:108CC00000780221FFF7D6BD1CB5044601F0D8FCA0
:108CD00000236A46092104F009FF052805D103484D
:108CE000012241792046FFF771F91CBD845800200C
:108CF0001CB50021009142F6A621ADF8001001211B
:108D00008DF80210034901AA096801916946A0DFA4
:108D10001CBD0000141F030005494FF0FF32082856
:108D200041F8202002D3084480F848207047000012
:108D30000C730020F0B54FF0FF3512B10023082668
:108D400001E008230C260C4C05E000BF54F823700A
:108D50007F1C04D05B1CB342F8D32846F0BD261814
:108D60005DB286F8305044F82310002AF5D1E1189E
:108D700081F84800F1E700000C7300200249084424
:108D800090F93000704700000C7300202DE9F0418D
:108D900088B01E46DDF8388014460D00074602D123
:108DA0000020FEF7C1F914B90020FEF7BDF920211B
:108DB0006846FDF7BCFB9DF80D00ADF8044040F09F
:108DC00002008DF80D000848ADF80070ADF80640BF
:108DD00002958DF8116042466946008800F006F859
:108DE00008B0BDE8F08100003E5900202DE9F043B5
:108DF0008146887891B090460C4600B901208DF8E4
:108E00003E002088ADF83C0000250095607C694656
:108E100007F07EF96E46A07C711C07F079F9E07BC3
:108E200000289DF8020002D040F0080001E020F088
:108E300008008DF80200217C11B140F0100001E023
:108E400020F010008DF80200217B11B140F00100EC
:108E500001E020F001008DF80200217D09B102211E
:108E600000E0012161F342008DF802001C2102A8FC
:108E7000FDF75DFB607BC10601D4800617D50E951A
:108E80000EAFE07C791C07F043F99DF83800079796
:108E900020F00F00401C20F0F00010308DF838005A
:108EA0009DF83A0020F00600801C8DF83A00607BA7
:108EB0008DF80800A07B8DF80900142109A8FDF7A2
:108EC00036FB0FA8CDE90906A088ADF83000A068F0
:108ED00020B1E088ADF82C00A0680D90A06998B38F
:108EE00001950088ADF81000A06901AD01A9408886
:108EF000ADF81200A069406806950390A069007B58
:108F000007F006F9A069691C407B07F001F9A06928
:108F1000807A00289DF8060002D040F0080001E0A9
:108F200020F008008DF80600A169C97A11B140F05F
:108F3000100001E020F010008DF80600A169097A08
:108F400019B140F0010002E00DE020F001008DF8C1
:108F50000600A169897B09B1022100E0012161F3CA
:108F600042008DF80600E06900B10590434609AA69
:108F700002A94846AADF11B0BDE8F08370B50446E7
:108F80004FF6FF750A462846AC4209D14FF480746B
:108F90002146104602F06EF980B2A0420BD070BD9F
:108FA000FF2CFCD82146104602F054F990F0010F36
:108FB00001D0204670BD284670BD000070B5084C39
:108FC000050009D010342168002907D00868206006
:108FD000496828468847F6E70834F4E770BD000082
:108FE000F8720020054A012120B1012805D19170B5
:108FF000FFF7E4BF51700020FAE77047F8720020D5
:1090000073B58CB00646002000900D9880B1002406
:109010006D4621460DA802F052F930B1009805EBDB
:10902000400084800098401C0090641C142CF0D3F5
:109030002C2269463046FDF753FA0EB070BD2DE97B
:10904000F04117880646B81D14460D46984202D9CD
:109050000C20BDE8F0813188072206290AD34FF49D
:10906000486C4FF6FF73614501D9994202D170886F
:10907000062801D21046ECE7604501D99842F9D1A3
:10908000994203D0984201D08142F3D80520E85597
:1090900020881221401C80B2208029542088401C46
:1090A00080B220804119308807F01CFD21880844D7
:1090B00080B220804119708807F014FD218808448F
:1090C00020800020C5E7FEF72FB8000038B54A7AA7
:1090D0000F4B62B100220A725969002906D00122A1
:1090E0008DF80020ADF802006846884738BD0A7A3E
:1090F00062B19B684C68024619462046FEF758F854
:109100000028F3D0BDE8384006F0FCBD5B68F1E70D
:10911000806F0020F0B587B016460F4604461D4606
:1091200018220B496846FDF7DBF90A488DF80870EC
:10913000ADF80240ADF80A608DF80C5001780022BD
:109140002046FEF743FF684600F09EFA07B0F0BDE8
:109150007C20030020590020FDF71CBE70B588B0AC
:109160000646002005900690ADF81410ADF81610D4
:109170000190029001AA05A9304690DF050021D098
:1091800003F070FC0346114811493246401AC108E9
:10919000012000EB014004460E4903F01EF9BDF822
:1091A000042012B9BDF8060028B1BDF806302046EB
:1091B00009A103F012F9BDF808201AB1204616499A
:1091C00003F004F908B0284670BD0000903C03008D
:1091D000783C03001427030054686520726571759C
:1091E00065737465642054582F5258207061636B06
:1091F0006574206C656E67746820697320746F6F86
:10920000206C6F6E672062792025752F2575206F81
:1092100063746574732E00006027030070B5044604
:109220000948012102F084F8BFF35F8F0025002870
:1092300008D1204601F0F4FC002803D1BFF35F8F72
:109240000148056070BD0000905800207FB50C46B5
:1092500010B1012004B070BD2079002638B141F66C
:109260001D5501281BD0022826D00F20F2E702202E
:10927000207102960396E0680190694601A806F005
:109280009BFA50B102988188E18000882081BDF866
:109290000010029806F00EFBDCE70A20DAE70A4B22
:1092A0006A460021A01D06F043FA38B10649183974
:1092B0008E61CE610A28CDD12846CBE7024881884D
:1092C000019806F0F7FAF5E7E0590020F0B587B00D
:1092D0000C4607461646142101A8FDF728F9A07888
:1092E00000B901208DF81A002088ADF8180006A8F2
:1092F0000190A079694606F00BFF6D46E079691C84
:1093000006F006FFE07800289DF8020002D040F049
:10931000080001E020F008008DF80200217911B169
:1093200040F0100001E020F010008DF8020061799B
:1093300011B140F0010001E020F001008DF80200C1
:10934000217A09B1022100E0012161F342008DF888
:10935000020002956089ADF80C00A089ADF80E00FE
:10936000E089ADF8100020690590324601A9384621
:10937000ABDF07B0F0BD00002DE9F0470025DFF8B6
:109380008C803CE06068002100EBC506012032784B
:109390009146FDF791F8D4E9062300EA020701EAB5
:1093A000030C57EA0C0728D082438B434846C4E994
:1093B000062303F093FC3278824691460120002177
:1093C000FDF77AF8D4E9042300EA020401EA03076E
:1093D0004A4650460021FDF76FF844404F403C4359
:1093E0000BD17078012801D0012100E000217268C2
:1093F00081EA0A010AB1484690476D1CEDB298F81F
:10940000000044468542BDD3BDE8F087A85900203E
:1094100010B50021024801F08BFF80F3100010BD51
:10942000387B002009490120096809B100207047F4
:109430000749CA69002AF9D1044A283212688968A2
:10944000491E8A42F3D1022070470000E86E0020D6
:109450002858002013460A460021FFF75BBE000093
:109460002DE9F843104D0F4680461E469146694649
:10947000286801F0B8FE040014D01C21FDF757F84D
:1094800001202071C4F81490380BC4F80080C4E99E
:1094900002606946286801F0C7FE06F0B5F80020B2
:1094A000BDE8F8830420FBE75C21030010B50378D6
:1094B0000022072B06D2DFE803F00504061020295E
:1094C00030000A7010BD01230B7003898B818388E3
:1094D000CB81C06888600A7410BD02220A700289BC
:1094E0008A818288CA81C2688A60807D062802D00B
:1094F0000020087410BD0120FBE703220A70C28817
:109500008A810289CA81C068886010BD04230B70FB
:10951000C0888881CA818A6010BD0520087010BD8E
:1095200070B5064D0646002455F8241009B13046A2
:109530008847641C042CF7D370BD00000074002021
:1095400030B50446006887B00D46806800281FD0FB
:1095500018216846FCF7EBFF0195A068059020797B
:1095600010B1012810D107E001208DF8000020691A
:109570000290E068039005E002208DF80000E068AA
:1095800000030290606904902068816868468847FB
:1095900007B030BD2DE9F04186B016460C0080467C
:1095A00029D0112C27D0082C25D018216846FCF78B
:1095B000BEFFADF80280404601F062F8ADF804004D
:1095C0001B481C490027401AC5080D2C16D0204600
:1095D00003F048FA0246012000EB054043461649D5
:1095E00002F0FBFE07208DF8000002948DF80C704D
:1095F000684600F057F806B0BDE8F081022000EBA5
:10960000054042460D4902F0E1FE03208DF80000BE
:1096100026B13078C00701D0012000E002208DF88B
:10962000080041F201108DF80C70ADF80A00DFE778
:10963000C03C0300783C0300D0300300C02F03007F
:1096400010B50446408801F01BF8A080024801686C
:109650002046BDE8104008478C5800202DE9F04115
:1096600007460024064E074D05E000BF56F82410BB
:1096700038468847641CE8788442F7DBBDE8F0810F
:10968000AC720020B058002010B50446408800F0AD
:10969000F7FFA080024801682046BDE81040084757
:1096A000302003000149096808470000BC2003007E
:1096B00070B586B0044618216846FCF738FFA089CB
:1096C0000125A0F54040ADF804002078324E062870
:1096D00035D2DFE800F0340303032E4EA08900F0FA
:1096E0008BF930B9E08943F6FE71A0F5404088421D
:1096F00025D8A07B8DF808002078032811D0002001
:109700008DF80900A0680390606860B109208DF8A9
:109710000000606804908DF81450684604F038F931
:109720000DE00120ECE708208DF800008DF81050C6
:10973000F3E7A08900F060F908B1E08930B17078F2
:10974000002801D004F06EFA06B070BD606840B128
:109750000B208DF80000606802908DF80C50757039
:10976000DBE70A208DF80000BDF8040004F0F8FAE9
:10977000F5E7606858B114208DF800006068029029
:109780008DF80C504FF6FF70ADF80400C5E71320BC
:109790008DF80000F6E700009C58002038B504461C
:1097A0000E480078A8B1A4F57F40FF380FD0684676
:1097B00005F05CFE78B10521017001210171C480C2
:1097C000684605F061FE05F011FF002038BD042059
:1097D00038BD022038BD082038BD0000E8590020FF
:1097E0000C4808B5007888B1684605F03FFE78B1AE
:1097F00006210170684605F047FE0748017809B167
:109800000121017305F0F2FE002008BD022008BD11
:10981000082008BDE8590020C4740020F0B587B0C6
:1098200014216846FCF783FE2B4C207818B168465B
:10983000FFF776FE4EE0201D01F05CFDB8BB4FF057
:10984000102041690004026940694B1C01D100FBF2
:1098500002F1224800220161A1F54051C160204976
:1098600002F050F9002820D11F481C238C221D49EA
:10987000006801F0A5FC03F01DFE051E14D00228AF
:1098800012D000270126062D12D005A805F0EEFD06
:1098900088B106700C2D18D2DFE805F0170F170FEE
:1098A00017161716171113110B2007B0F0BD11E092
:1098B00026706760BBE70820F7E7077105E0032122
:1098C00000E00221017100E0067105A805F0DCFD51
:1098D00005F08CFE0020E8E7E8590020E85A002057
:1098E0006C21030010740020D420030038B504005C
:1098F00014D0694605F060FFA0B1BDF8000000EB90
:109900008001094800EB8100C16849B1A17A39B1F1
:10991000C168491EC1600020A07238BD052038BD55
:10992000062038BD0A2038BD9C7400201FB501A94F
:10993000684605F0FDFE04B010BD07B513460A46A3
:109940006946002005F0F4FE0EBD07B513460A4631
:109950000021684605F0ECFE0EBD20B119B100688B
:10996000086000207047052070470000F8B50D46DC
:10997000040018D0BDB1694605F01EFFA8B1BDF8BE
:1099800000000B4900EB800001EB800001210C304E
:10999000666801F0B2FC2E6060680C3068600120DF
:1099A000A0720020F8BD0520F8BD0A20F8BD000017
:1099B0009C74002018B10323002207F095BD0520F8
:1099C00070470223002207F08FBD0000084910B540
:1099D0000A69042A0AD0074A096942F821000448A2
:1099E0000121103001F089FC002010BD0C2010BDB9
:1099F000C85900200074002043F6FE71A0F54040D5
:109A0000884201D8012070470020704710B50446F5
:109A10000078182802D1FEF7B5FA207010BD10B5F5
:109A200004460078182802D1FEF7ACFA207010BD69
:109A300070B50D460446B0F83812D0F83402012251
:109A4000FDF73CFF00B1057004F13C0204F50D7117
:109A500004F1540072DF70BD70B513460022054654
:109A6000112900D10122074C33B12179FEF7AEFA5A
:109A700000226178284600E06178BDE87040FEF77A
:109A8000A5BA000028590020F7B517460E0011D0DE
:109A90000098002560B100242146684601F00FFCC3
:109AA00018B1A0B23946B0476D1C641C142CF3D316
:109AB0002846FEBD0020FEBD406805F0F7BC000052
:109AC0000EB517A19DF8080020F00F00401C20F0F3
:109AD000F00010308DF808000A2202A87CDF08B1DF
:109AE000FDF722FB40F2413078DF08B1FDF71CFBA7
:109AF0000020009001904FF4A071ADF80400ADF883
:109B000000104FF4C8704FF40271ADF80600ADF8C4
:109B1000021068467ADF002801D0FDF705FB0EBD74
:109B20004E6F726469635F48524D000070B508B1B2
:109B3000012070BD1B4C0025207B08B1257301E07E
:109B400000F0A4F8207808282AD2DFE800F02904E1
:109B5000080C10291422BDE8704000F025B8BDE8BB
:109B6000704000F081B8BDE8704000F063B8BDE817
:109B7000704000F03FB8062020706088094900EB73
:109B80008000283901EB80004068BDE8704003F098
:109B900071BC072020706560BDE8704003F078BCA0
:109BA0000F2070BDC47400201149F0B48A1C00203D
:109BB0000346A1F128050C18A67A4EB1A37200EB5A
:109BC000800405EB8404E66816B9247C012C0AD0D5
:109BD000401C80B20228EED30B704B804B60F0BC6F
:109BE00041F61D5070471080F0BC00F03DB80000F9
:109BF000C47400200C48418801EB8102A0F12801C7
:109C000001EB8201CA6852B10521017007480221A7
:109C10008180016800230122054801F0D7BE04229B
:109C200002704968F6E70000C4740020F059002073
:109C3000E85A002038B50A49084803240B684268EE
:109C4000898803EB810153880470DB1C00201B040E
:109C500000909B0B034802F00DF838BDC47400203F
:109C6000F0590020E85A0020074910B54888091D1E
:109C700005F0F2FD18B1BDE81040FFF7DBBFBDE80D
:109C80001040FFF7B7BF0000C4740020F0B51F48B4
:109C90001F490125067802248B88A0F12802082E8E
:109CA00019D2DFE806F00418181B222F2F1701899C
:109CB000491C01810021418080F80C1001EB8103D7
:109CC00012F8233043B100234418491C89B2A3720F
:109CD0000229F3D30570F0BD0123F5E742685288ED
:109CE000D21C1A448A800470F0BD46880D6806EBC9
:109CF000860602EB860256680E60556013818C80E2
:109D0000062100E007210170F0BD0000C4740020AE
:109D1000F05900202DE9F041044680882188394E11
:109D200086B00746352937D0502923D0522902D092
:109D300054295DD102E000F017FF59E018223249A2
:109D40006846FCF7CDFBADF80270384600F098FC91
:109D5000ADF8040000F09CF9002231793846FEF796
:109D600035F90022F1783846FEF730F96846FFF7FA
:109D700067FC3DE0207B01283AD1A07A012837D149
:109D80002089A0F52451023932D10121384600F052
:109D90003FFF06F023FF2BE04FF0000842467179A9
:109DA000FEF714F9E288B2F5857F1DD017481849EF
:109DB000401AC008022101EB004512B1284615A146
:109DC0000BE06289012A03D0284621A102F0FEFAA5
:109DD000A289012A04D028462CA102F0F7FA03E058
:109DE000A07B00B1012080464146384606F050FC79
:109DF00000223549B078FEF77BF806B0BDE8F041A7
:109E000006F040B884580020701F0300783C03001F
:109E1000783C0300556E657870656374656420470F
:109E200041545420737461747573207768696C654C
:109E30002067657474696E672043415220636861CE
:109E4000722076616C75653A2030782578000000C4
:109E50004D756C7469706C65202825642920434118
:109E600052206368617261637465726973746963B7
:109E70007320666F756E642C207573696E6720742D
:109E800068652066697273742E000000556E6578EF
:109E90007065637465642043415220636861726138
:109EA0006374657269737469632076616C7565208B
:109EB0006C656E67746820282564292C2073746F84
:109EC000726520302E000000CD74020070B504468B
:109ED0000078002814D1608800F046FE6588284686
:109EE00000F098F928B107480122C1782846FEF70A
:109EF0006DF86088FEF7E8FEBDE8704006F06EBEC3
:109F000070BD00008458002070B51A4C00252570E3
:109F1000FEF738F86070FEF735F8A070FEF732F8FB
:109F2000E070FEF72FF82071FEF72CF86071627870
:109F30000121182A12D0A278182A0FD0E278182A04
:109F40000CD02279182A09D0182807D004F10C0067
:109F50000560BFF35F8F2170002070BD0648074A7F
:109F6000801AC00801EB0040054902F02BFA0320DB
:109F700070BD000084580020783C0300783C03004A
:109F80002C2403007CB504460078082837D1607A79
:109F900058BB207A1C4E4FF6FF75012811D00728B8
:109FA00002D008282BD121E0A08800F0B3FA0446A3
:109FB000A84224D0012100F02BFE2046FEF784FEAB
:109FC0001DE0A0886A46012103F004FC68B90198ED
:109FD000007850B1A08800F09DFAA8420FD001226D
:109FE000F178FDF7F3FF05F04DFF08E0F068012878
:109FF00005D1BFF35F8F044900200C310860BDE834
:10A000007C4006F0EBBD0000845800202DE9F041B3
:10A010008046024601200021FCF74EFA1A4F054601
:10A020000E467868FDF71AF900280CD1174CD4E9D0
:10A03000062110462A4001EA06031A4305D0A84328
:10A04000B143C4E90601BDE8F081404602F046FE96
:10A0500030B1D4E9040128433143C4E9040105E0E7
:10A06000D4E90410A943B043C4E90410D4E90601BB
:10A0700028433143C4E90601A1687868BDE8F0418E
:10A080000022FDF795B80000CC200300A85900205D
:10A090001CB5054AD2E90212CDE900120022694638
:10A0A00003F05EFD1CBD00008C1F030003484FF64B
:10A0B000FF718180012101700020704794580020B9
:10A0C0002DE9FC41804600F0DBFA0024032501273E
:10A0D000A0F57F412646FF3908D06A46082103F0E3
:10A0E00079FB18B90198841D8688056832462B468D
:10A0F00021464046B1DF042804D0082804D00B28AC
:10A1000008D002E0112000E00020002F00D10B2039
:10A11000BDE8FC810027A80701D50125E6E7344307
:10A1200003D0002426460325E0E7064806494246B8
:10A13000401AC008012101EB0040044902F046F931
:10A14000E5E70000803C0300783C03009C26030008
:10A150002DE9FC41804600F093FAA0F57F410646C8
:10A16000FF390ED001252A466D1C0027ADB26B4683
:10A170000821304603F078FB040006D0072C33D0CA
:10A1800033E043F20200BDE8FC81019903230A1D7C
:10A190000B604046891DB2DF040004D00C2C09D0AE
:10A1A000052C09D009E032460821104603F0D4FB03
:10A1B00004461AE0012700E000240821304603F09D
:10A1C000C1FB70B102F04EFC034609480949324612
:10A1D000401AC008012101EB0040074902F0FDF8D8
:10A1E0000324002FBFD100E00C242046CBE7000061
:10A1F000803C0300783C03001C2603000448808850
:10A20000A0F57F41FF3901D005F046BE7047000040
:10A21000945800200EB502A9019100F031FA6A4667
:10A22000012103F0D7FA08B100200EBD0198007893
:10A230000EBD00002DE9F04107464FF6FF761048AD
:10A24000B3DF78B102F00EFC02460E480E49401A08
:10A25000C008012101EB00400C4902F0B7F80320CF
:10A26000BDE8F081064C43F20305A41E3246618826
:10A270003846AFDFA842F3D16088401C6080F5E724
:10A2800096580020803C0300783C0300D025030052
:10A29000428800EB82020C328A4201D902207047C8
:10A2A0008188A1F57F42FF3A03D0008808B10020E1
:10A2B000704701207047884204D20068401C01D0DA
:10A2C000012070470020704710B51249124805F070
:10A2D000ACFD114C81B2243C6068401C60600F48AA
:10A2E000FEF714F958B1082809D0132807D011280F
:10A2F00005D043F20141884201D0FCF715FF6068A8
:10A300000321B0FBF1F201FB120000B1012020702B
:10A3100010BD0000E85D0020DC570020105B00202D
:10A320002DE9F041044640799046002500B104250E
:10A3300094F8220008B145F00205CAB2FF2908D9F5
:10A34000090A88F8012045F0010588F80210032663
:10A3500002E088F801200226B4F84C0008B145F06C
:10A36000100500271BE000BF94F84E10B21C91426C
:10A370000BD2B4F84C0004EB4701C01B420004F1BF
:10A3800024002431FCF7ACF80DE004EB470008EBA7
:10A390000601808C0870000A4870D6B27F1CB4F8A1
:10A3A0004C00B842E0DC34F84C0FC01B208088F829
:10A3B00000503046BDE8F0813EB5027802230C46DD
:10A3C000B3EB520F17D1B0F80110ADF80010C178FF
:10A3D0008DF802108188ADF8041080798DF80600A0
:10A3E00002AA01A92046FCF7DDFD032202A9684666
:10A3F000FCF7AFF808B100203EBD01203EBD0000D3
:10A4000070B50D460446142810D2FDF7FFFD68B163
:10A41000084904EB840001EB4000D0F802102960E9
:10A42000C188A980007AA871002070BD43F20200A3
:10A4300070BD00001470002070B5018892B0102922
:10A4400061D1011D2C226846FCF74AF89DF80400F2
:10A450004FF6FF7603213446B1EB500F2BD003F0BB
:10A460003DFB9DF804006D4640080ED001280CD03D
:10A47000022820D118E00D99281D1131FCF728FD84
:10A4800018B100BFBDF82C4015E00CAA0BA907209D
:10A4900003F0F8FA0028EED10DE00D99281D491CB3
:10A4A000FFF78AFF0028EDD10CAA0BA9072003F0C3
:10A4B000E9FA0028F1D1BDF80000B44200EB8001B8
:10A4C000124820F8114000EB41000199C0F8021039
:10A4D000BDF80810C1809DF80A10017213D0BDF8B4
:10A4E0000000ADF82E000020ADF83040084E8DF889
:10A4F0002C000BAD044600BF56F8241028468847B0
:10A50000641C022CF8D312B070BD0000147000203F
:10A51000A01F03002DE9F0414FF6FF760546B0423B
:10A5200013D00B4F002400BF04EB840037F8100059
:10A53000A84206D12046FDF769FD10B12046BDE8CE
:10A54000F081641CA4B2142CEED33046F7E700006F
:10A55000147000203EB50C46054603F0BFFA0BE030
:10A56000BDF80000A04207D02846029900F00EF87E
:10A5700010B1BDF800003EBD01AA6946072003F0F6
:10A5800081FA0028ECD14FF6FF703EBD2DE9F04175
:10A590000C46054600F1110701F111061022491C75
:10A5A000401CFBF7D6FF48B9681C00F0F9F928B148
:10A5B000601C00F0F5F908B1012400E000243146E8
:10A5C0003846FCF785FC3B780222B2EB530F0CD0E7
:10A5D0000321B1EB530F08D03378B2EB530F04D003
:10A5E000B1EB530F01D0012100E00021084201D15D
:10A5F0008C4302D00120BDE8F0810020FBE70188F8
:10A6000011B9421892780AB101207047491C0829F3
:10A61000F7D30020704710B50C460346FFF7EFFF55
:10A6200000280AD018882188884205D10822A11C58
:10A63000981CFBF78EFF08B1002010BD012010BD53
:10A64000142804D2024A00EB800022F81010704750
:10A650001470002070B50546FFF75CFF04462846DD
:10A6600003F0BCF8002808D1142C06D2034B04EBED
:10A6700084024FF6FF7123F8121070BD1470002091
:10A6800010B50446142808D2FDF7C0FC28B10449CF
:10A6900004EB840031F8100010BD4FF6FF7010BDC0
:10A6A000147000203EB5044603F018FA0EE001993C
:10A6B00020464631FFF7AFFF28B9019920462A31DD
:10A6C000FFF7A9FF10B1BDF808003EBD6A4602A918
:10A6D000072003F0D7F90028E9D14FF6FF703EBDFF
:10A6E00010B50A4941600A4800F004FE58B902F06A
:10A6F00043F907491C238C22087404488C39001F35
:10A70000006800F05DFD002010BD00006021030026
:10A71000707500202DE9F0412D4F002518B17D60A6
:10A720000120BDE8F0810879012258B1294E0128A5
:10A730000CD0274C4FF002080834022821D00328FF
:10A7400042D128E00A7102F0A3FE3BE05FF0000076
:10A7500000EB800116F82110022908D0401C80B2BD
:10A760000228F5D33A707D6041F61D50D9E700EB21
:10A77000800006F8205006EB8000406802F07AFE68
:10A7800020E00D71A4F80480002301221248216802
:10A7900001F01CF916E00D71206802F06BFE0D4906
:10A7A00023682831498801EB810206EB8201D1F848
:10A7B00004C0C4F800C04B60A3880B81A4F80480D7
:10A7C00006F822500028ACD07D600E20A9E70000DA
:10A7D000E85900209C740020E85A002001460348F4
:10A7E00002888A4200D00020704700006C6F002071
:10A7F0002DE9FC5F0E008346DDE90C47C6F1000041
:10A8000098469246814600D40846012503E000BFE1
:10A8100090FBFAF06D1C5045FADAA84500D9454680
:10A8200024B1002E01DB780700D5641EB80702D5DD
:10A83000B8F1000F0AD0F80708D13CB1A54205D203
:10A8400020215846641EFEF721FAF6E7002E02DAB0
:10A850004E462D2102E0780703D52B215846FEF7FE
:10A8600015FA07F0030002280BD1B8F1000F08D148
:10A870003CB1A54205D230215846641EFEF706FAC7
:10A88000F6E7CDE90047434652463146584606F0C2
:10A890004BF9BDE8FC9F000070B50D46044600680A
:10A8A0004FF4887102F0FEF84FF49071206802F0C6
:10A8B000F9F84FF49271206802F0F4F84FF4A271A5
:10A8C000206802F0EFF820681249C0F804132068ED
:10A8D000690740F30730090E002806DA00F00F0080
:10A8E00000F1E02080F8141D03E000F1E02080F882
:10A8F00000142068012140F3073000F01F0291404E
:10A900004009800000F1E020C0F88012C0F800117A
:10A9100070BD0000100302000246002012685307B9
:10A9200013D502F00300012802D002280CD105E063
:10A93000C2F383100B68801C184404E002230868EB
:10A9400003EB925210440860012070470248007ADD
:10A95000002800D00120704770750020F0B5848871
:10A96000A518944200D82246A41AC288D6189A4242
:10A9700000D81346D21A4B880788BB420CD34088B4
:10A98000834209D88888A04206D3A84204D8C88840
:10A99000904201D3B04201D90020F0BD0120F0BDAA
:10A9A0000021425C0AB101207047491C1029F8D3EC
:10A9B00000207047800701D00020704701207047B9
:10A9C0000268134602E08A4204D01268002AFAD1D3
:10A9D0000B600160704700000A4810B5807860B1D4
:10A9E000002401E0022C06D02046FDF7D3FE641CB3
:10A9F000042CF7D310BD0324F6E7BDE81040FDF7A3
:10AA0000E9BE0000F857002003480179C90702D0C9
:10AA10000078FEF71BB87047F85700201721018017
:10AA200041800021017141711B218171C171704709
:10AA30002DE9FE4F2E4F984692460D00814601D0DB
:10AA400000260DE0684600F091FB6A46002148466A
:10AA500002F018FE3878009E10B99DF8090098B1F0
:10AA600052463146484605F0E1FC044601460022C4
:10AA70004846FEF7F1FF0D2C37D008DCA4B3082CB4
:10AA800033D00B2C09D130E00520BDE8FE8F112C0E
:10AA90001ED0A4F54050023827D0204601F0E2FF36
:10AAA0000246144814494B46401AC008012101EBE4
:10AAB0000040124901F091FC5FF00305B8F1000F6E
:10AAC00004D0324621464846FEF764FD2846DCE7BE
:10AAD0002A46F9784846FDF779FA5246B978484649
:10AAE000FDF774FA0025E9E7FFE72546E6E70000F1
:10AAF00028590020C03C0300783C03007830030054
:10AB000070B50E460C49154604460978FDF746FA1D
:10AB100000280FD0204602F05BFD00282A4631466F
:10AB2000204603D0BDE8704002F058BDBDE870403B
:10AB3000FEF790BC70BD00002059002070B5094D93
:10AB40000646A978FDF72AFA0446E9783046FDF76B
:10AB500025FA014622463046BDE870400123FFF742
:10AB600067BF000028590020F0B587B005460027D0
:10AB700018216846FBF7DBFCA5F57F40ADF80250D5
:10AB8000FF3825D02846FFF79BFA040022D01B4847
:10AB90001B49401AC6080B2C22D0112C1ED0A4F53C
:10ABA000405002380ED0204601F05CFF02460120E2
:10ABB00000EB06402B46134901F00FFC21462846C6
:10ABC00005F0A8F810483A4681782846FDF7FEF9C6
:10ABD00007B0F0BD0E208DF800000BE00127F1E773
:10ABE0000F208DF80000022000EB06402A4607499E
:10ABF00001F0ECFB6846FEF723FDE3E7783C030039
:10AC0000783C0300FC2403008458002050250300F6
:10AC10000A4602494978FDF7D9B900008458002056
:10AC20002DE9F041002786B080463E46FFF790FAB6
:10AC3000040022D0112C22D01B481C49401AC50800
:10AC4000862C1ED0A4F5405002380ED0204601F0CC
:10AC500009FF0246012000EB0540434614A101F024
:10AC6000BCFB2146404605F055F839464046FFF703
:10AC7000CFFF06B03046BDE8F0810126F5E7012799
:10AC8000F3E718221A496846FBF72AFC0220ADF8C0
:10AC9000028000EB0540424616A101F097FB684692
:10ACA000FEF7CEFCE1E70000783C0300783C0300AF
:10ACB0006773636D5F6C6F63616C5F64625F636138
:10ACC0006368655F757064617465282920726574B6
:10ACD00075726E656420257320666F7220636F6ED7
:10ACE0006E5F68616E646C653A2025640000000048
:10ACF000401F0300466C6173682066756C6C2E20E3
:10AD0000436F756C64206E6F742073746F7265206E
:10AD10006461746120666F7220636F6E6E5F68613C
:10AD20006E646C653A202564000000002DE9FF4147
:10AD30000026234800F0DBFA2148001F074600F0F8
:10AD4000D6FA204C60680090A56800E0009869463B
:10AD5000284004EB80000C30FFF7DEFD0028F5D121
:10AD600001AA009901EA050304EB8303491CDB688F
:10AD700042F82030401C00910228F2D3019800F0E4
:10AD8000030001280BD0022810D10198032101EB08
:10AD900090500099BDF80A6001EB900005E0019821
:10ADA000BDF80A60C0F3831008440090384600F0F4
:10ADB0009BFA08B10098606004B03046BDE8F081AD
:10ADC000347B00201C77002001F0E2F90028FBD141
:10ADD00006F0C8F9F8E70000ACB04FF400410020DD
:10ADE00001F06CFB08B1FCF79FF901F0C3F900F02A
:10ADF00055FC08B1FCF798F956480124CDE900400C
:10AE00000023220254A1564806F066FE012802D013
:10AE10000420FCF789F95348016841F004010160FE
:10AE200001F026FD08B1FCF77FF9002569460120F5
:10AE3000009501F079FC08B1FCF776F9684601F05D
:10AE4000B5FC08B1FCF770F905F070FC4649032029
:10AE5000FDF7B2FD08B1FCF767F969460020FDF780
:10AE6000DDFC08B1FCF760F99DF8000002286FD006
:10AE70005FF000008DF8AC00FEF722FE00213B4899
:10AE800000F0CBFA08B1FCF74FF9AC216846FBF7AC
:10AE90004EFB02208DF800008DF8024006208DF850
:10AEA00003002C4803261C300590ADF810604FF4C9
:10AEB0009670229044F2506023908DF87C402C488C
:10AEC00029902A4869462030FCF728FD08B1FCF794
:10AED0002BF9264801212030FCF71CFD05F0BCF8B9
:10AEE00004F04CFF1C216846FBF721FB41F288303F
:10AEF000CDE9005047F2305002901C488DF80C60AC
:10AF000050388089ADF80E001A4805901A4806900E
:10AF10008DF810506846FCF7A1FF08B1FCF704F962
:10AF200002F064FFFCF70AFA2BA9144801F0ECFCCC
:10AF300013481449401AC00806EB004012A101F062
:10AF400041FA06F0DFF80F20FCF7EEF8FBE7FFE729
:10AF500001208FE7D05700204C4F47474552000053
:10AF6000C9AD020010ED00E011890200605B002015
:10AF700005D2020059D20200C7900200516F0200B0
:10AF8000103D0300783C030048525320467265652B
:10AF900052544F53206578616D706C6520737461F5
:10AFA000727465642E00000070B5144682880E46E7
:10AFB00005462088111D0144921C994201D8FE2AA1
:10AFC00001D90C2070BD521C32542088FF21401C36
:10AFD00080B2208031542088401C80B220808119AA
:10AFE000288805F07FFD2188084480B22080AA8847
:10AFF00042B1A96841B13044FBF772FA2088A988B0
:10B0000008442080002070BD072070BD2DE9F04766
:10B01000C5881E1DB6FBF5F78946B6FBF5F104465B
:10B0200005FB176C407916686843DDF820A0F71817
:10B03000001F874200D9C61A166001E02468491E25
:10B040000029FBD1A5EB0C078846B74216D818E0BB
:10B0500004EB0C00001D09EB0803BAF1000F3A469F
:10B0600002D00146184600E01946FBF739FA246879
:10B07000F61B4FF0000CB844B54201D9374600E04A
:10B080002F46002EE4D1BDE8F087000030B502461F
:10B0900051B101F031FA0021074C08E034F82130B9
:10B0A0001568AB4202D11160002030BD491C8142BD
:10B0B000F4D3052030BD000000000000BFF35F8F17
:10B0C00000F0FDB8F8B50F46017814460546012991
:10B0D00001D1687830B12088821C9A4232D8012987
:10B0E00002D006E00720F8BD69780144891C994226
:10B0F00028D8181A801E86B2ADF800602188B81CC6
:10B10000084469467DDF0028EDD12978022904D062
:10B110006878BDF80020904205D3BDF80000B04229
:10B1200001D809200AE00820012905D16978B14237
:10B1300002D8ADF8001001E0ADF80060BDF80010D5
:10B14000FE2901D90C20F8BD2288491CB954218858
:10B15000491C89B2218078542088401C2080BDF889
:10B160000010084420800020F8BD0000034A0021A0
:10B170009268C0E9002181607047000028590020D2
:10B1800070B54FF6FF750E46A84201D1002000E0D1
:10B19000401C84B208E02146304600F090F808B127
:10B1A000204670BD641CA4B2FF2CF4D9284670BDA3
:10B1B00010B5FBF756F908B1002010BD112010BDE5
:10B1C00010B531B1B2FBF3F403FB14241CB1092018
:10B1D00010BD0E2010BD01600021416081608281A0
:10B1E000C381084610BD70B50C460546FBF7EEF866
:10B1F000002802D021882868084470BD10B50A884C
:10B2000049888A4203D1FBF723F9012010BD0020B1
:10B2100010BD70B50C460546FBF7FDF8002802D0BE
:10B2200061882868084470BD10B50A8849888A4238
:10B2300003D1FBF7E7F8012010BD002010BD01F09D
:10B240001F0301229A40D243490900EB81001146B5
:10B2500000F059B80A4601F01F030121994010B5CA
:10B2600052090C4600EB820000F05DF8204000D04F
:10B27000012010BD2DE9F04180460D460024481EF6
:10B28000012101EB501716E058F82400C04390FA52
:10B29000A0F0B0FA80F020280CD200EB4416AE42A9
:10B2A00008D231464046FFF7D5FF0028ECD13046A2
:10B2B000BDE8F081641CA742E6D82846F8E74A09B1
:10B2C00050F8220001F01F0201219140084000D0F7
:10B2D0000120704701F01F0301229A40490900EB49
:10B2E0008100114600F029B8002100F017B80121B3
:10B2F00000F023B8012100F016B808B56A46FBF744
:10B3000026F8009808BD08B56A46FBF706F80098CD
:10B3100008BD08B56A46FBF71AF808BD08B56A46C5
:10B32000FAF7FBFF08BD08B56A46FAF7E9FF08BD62
:10B3300008B56A46FAF7D8FF08BD08B56A46FAF7B5
:10B34000DFFF009808BD08B56A46FBF70DF80098C6
:10B3500008BD38B5044600258DF800506846FBF757
:10B36000AFFF21686268086890420ED9401E0860ED
:10B370000178238AE26801FB0325227A2168101AEA
:10B38000C0B20A79824200D208719DF80000FBF732
:10B39000BBFF284638BD38B5054600208DF80000B3
:10B3A0000C466846FBF78CFFE868298A201AB0FB38
:10B3B000F1F12A681068431C136001709DF80000C9
:10B3C000FBF7A2FF38BD10B530B1017A42680368BF
:10B3D000891AC9B21A6006E00E2010BD03681A6807
:10B3E000541C1C601170491EC9B2F7D200680021BC
:10B3F0000171084610BDC20800F007030120895CF6
:10B4000098400840704710B5C20800F00703885CF8
:10B4100001249C402043885410BD10B560B10161E7
:10B42000172120F8021B20F8021B1B2100F8021B29
:10B43000FFF7F4FA002010BD0E2010BDF0B585888E
:10B4400093B00C46002D39D1018800263F4F2429A6
:10B450003BD006DC102909D011290CD0232958D162
:10B460004FE03A290BD0552953D129E00146204617
:10B4700001F000FF4DE0A01DFFF7D0FA49E02246A1
:10B48000408934F8061F814200D80846608017289A
:10B4900000D217206080106970B1607960B1D7E97F
:10B4A0000001CDE90301ADF80E506088ADF8100041
:10B4B000136903A9104698476671267113B0F0BD51
:10B4C0000146204601F02AFF23E0011D2C2206A898
:10B4D000FBF706F8BDF81800BDF81C2004EBC0010E
:10B4E0004A732269AAB1D7E90423CDE90423ADF850
:10B4F0001200487B8DF814002269204604A9904769
:10B5000007E0017A207B884200D201462846FDF7F9
:10B5100025FEA07A0028D1D0E1882846A5DF0125A4
:10B5200080B11128CAD001F09DFA024608480949A5
:10B5300013B0401AC00805EB0040BDE8F04006A17A
:10B5400000F044BFA672E572B8E70000A81F030030
:10B55000903C0300783C030073645F626C655F6736
:10B56000617474635F65786368616E67655F6D744D
:10B57000755F7265717565737428292072657475BD
:10B58000726E65642025732E0000000020B10278E1
:10B59000DE2A03D0082070470E207047418000202B
:10B5A000704760B159B10278DE2A0AD0096841605B
:10B5B000DE2101704FF6FF714180002070470E20A0
:10B5C0007047082070477FB5054600294DD0002DF3
:10B5D0004BD008780C46DE2847D1A888618888427D
:10B5E00002D1204605F058FB2888012825D00228E2
:10B5F0003BD011283AD0512837D135F8040F618853
:10B60000884232D1A978A81C02292ED1017A0429B6
:10B6100003D0062901D0052927D10021009102225B
:10B620008DF8002001914FF4C07202910391ADF8A2
:10B630000420007A05280FD010E0297A204601293D
:10B6400013D1A988428891420FD10121017204B01F
:10B65000BDE8704005F020BBADF8041028886946AD
:10B66000B0DF002801D0616888477FBDA888618865
:10B670008842FAD14FF6FF7060807FBD00F18040B4
:10B680000068002800D00120704708B500F1804014
:10B69000002101600068009008BD000070B50B4CEF
:10B6A000207808B185250FE00020A060606020614F
:10B6B000E060074801F014FA054601F05DF908B9A9
:10B6C00001F0F6F901202070284670BDF8720020C4
:10B6D000E58F020038B500258DF800506846FBF76D
:10B6E000EFFD074CE068401EE060E06810B901F033
:10B6F0002DFAA5709DF80000FBF706FE38BD00008E
:10B70000F8720020F8B5134D0446A878002648B119
:10B7100014B16168012088478DF800606846FBF726
:10B72000CFFD0EE08DF800606846FBF7C9FD24B13F
:10B73000084821461030FFF743F9E86808B901F0DE
:10B74000DFF9E868401CE8609DF80000FBF7DCFDCD
:10B75000F8BD0000F8720020F0B5054604781548E1
:10B7600089B0164640F82420124A0869121DA2F139
:10B77000080742F82400487F385520226846FAF727
:10B78000AFFE04942878385C48B10EB10A4A00E054
:10B7900000226946281D01F051FC09B0F0BD0EB130
:10B7A000064A00E00022694605F10C0001F018FB92
:10B7B000F3E700008C590020C10903000D080300C5
:10B7C0000FB408B50399002904D004AA00926A4670
:10B7D00000F00FF801B05DF814FB10B58268044664
:10B7E000002A05D0D4E90403216898470020A0600E
:10B7F00010BD2DE9FC4791460C00804676D014F828
:10B80000011B39B125290ED04046FDF73FFA2078BB
:10B810000028F4D198F80C00002867D04046BDE815
:10B82000FC47FFF7DABF0020012221782B291BD02B
:10B830002D2902D0302908D102E040F0010001E0BA
:10B8400040F00200641C002AEFD100252A290ED006
:10B850002178A1F130020A2A11D205EB850201EB11
:10B860004205641C303DF1E740F00400EAE7D9F8F6
:10B8700000100B1DC9F800300968641C0D442178C4
:10B8800000232E290BD114F8011FA1F130020A2A3E
:10B8900005D203EB830201EB4203303BF3E76C2953
:10B8A0000DD068290BD0692921D00BDC252918D0AF
:10B8B000582931D063290ED0642915D117E014F826
:10B8C000011FECE7702969D0732932D075291BD08C
:10B8D000782909D120E0D9F80000011DC9F800102D
:10B8E00001784046FDF7D2F9641C90E76CE0D9F886
:10B8F00000100A1DC9F800200968CDE900500A228D
:10B900004046FEF775FFEFE7D9F800100A1DC9F8A9
:10B91000002009680A2206E0D9F800100A1DC9F8BB
:10B92000002009681022CDE90050404605F0FCF8DF
:10B93000DAE7D9F8001000270A1DC9F800200E68C0
:10B94000C00705D112E04046761C7F1CFDF79EF92A
:10B9500031780029F7D104E0202140466D1EFDF723
:10B9600095F9BD42C0D9002DF6D1BDE74EB13046A4
:10B97000FAF7E8FD074604E0202140466D1EFDF77A
:10B9800085F9BD4206D9002DF6D103E04046761C6C
:10B99000FDF77CF931780029F8D1A5E7D9F8000046
:10B9A000011DC9F80010056830214046FDF76EF909
:10B9B00078214046FDF76AF908200021CDE9000111
:10B9C000034610222946B0E7BDE8FC872DE9F8437D
:10B9D000884605002C482D499946A0EB01004FEA06
:10B9E000D0004FF00101164601EB004424D0286836
:10B9F00000282CD0002E34D0696840464FF0100744
:10BA00000A68511E11EA080F11D1014672432846F7
:10BA1000FBF777FA00282ED028684B463246046997
:10BA200001B041462846A446BDE8F04360472046A1
:10BA3000174B18A2009722E00E2000902046144BCE
:10BA40001EA220A100F0D1FC0E20BDE8F883082042
:10BA5000009020460E4B26A21AA100F0C6FC08203A
:10BA6000F3E7092000902046094B24A215A100F01D
:10BA7000BCFC0920E9E7064B214A2046009711A1AA
:10BA800000F0B3FC1020E0E7083D0300783C030021
:10BA900047210300616464725F69735F7061676569
:10BAA0005F616C69676E656428705F66732C2070D7
:10BAB0006167655F6164647229000000705F66738E
:10BAC00000000000257320636865636B2066616970
:10BAD0006C656420696E2025732829207769746855
