:020000021000EC
:1090000000600020799301006193010063930100E7
:10901000659301006793010069930100000000005F
:109020000000000000000000000000006B93010041
:109030006D930100000000006F9301007193010027
:10904000ED1A020073930100811B0200739301006B
:1090500073930100000000007393010073930100FB
:1090600073930100E52202007393010073930100E2
:1090700073930100739301007393010073930100D4
:1090800073930100739301007393010073930100C4
:109090007393010073930100092B02007393010085
:1090A00073930100739301000000000000000000B2
:1090B00073930100739301000000000000000000A2
:1090C00000000000000000000000000000000000A0
:1090D0000000000000000000000000000000000090
:1090E0000000000000000000000000000000000080
:1090F0000000000000000000000000000000000070
:10910000000000000000000000000000000000005F
:10911000000000000000000000000000000000004F
:10912000000000000000000000000000000000003F
:10913000000000000000000000000000000000002F
:10914000000000000000000000000000000000001F
:10915000000000000000000000000000000000000F
:1091600000000000000000000000000000000000FF
:1091700000000000000000000000000000000000EF
:1091800000000000000000000000000000000000DF
:1091900000000000000000000000000000000000CF
:1091A00000000000000000000000000000000000BF
:1091B00000000000000000000000000000000000AF
:1091C000000000000000000000000000000000009F
:1091D000000000000000000000000000000000008F
:1091E000000000000000000000000000000000007F
:1091F000000000000000000000000000000000006F
:10920000364937480A1A02D0072291438D4635491C
:1092100035480A1A06D00722914381F309880222B1
:1092200082F3148831483249324A00F045F8324816
:109230003249334A00F040F832483349334A00F0AB
:109240003BF833483349344A00F036F83348344960
:10925000344A00F031F834483449354A00F02CF8EB
:1092600034483549354A00F027F835483549002259
:1092700000F02DF834483549002200F028F8344831
:109280003449091A082903DB002202600430016016
:10929000314A90471F482049884205D0026804306F
:1092A00003B4904703BCF7E700208646EC46002055
:1092B00000212A4A9047FEE7884207D0521A05D07B
:1092C000037801300B700131013AF9D170478842BF
:1092D00002D002700130FAE7704700000060002001
:1092E000005800200060002000600020383102009B
:1092F000502700206C270020C4930100C493010074
:10930000E82C0200383102005027002050270020AE
:10931000102D0200102D0200102D0200102D020051
:10932000102D0200102D0200102D0200102D020041
:1093300038310200543102006C2700206C270020D5
:109340006C270020344B0020344B0020344B00208D
:10935000344B0020344D00208F9301003D2002004B
:10936000FEE7FEE7FEE7FEE7FEE7FEE7FEE7FEE7D5
:10937000FEE7FEE7704700BF0C4880470C484FF0FF
:109380000701884385460B488047FFF739BF0A48E5
:109390000A490B4A884207D0521A05D00378013097
:1093A0000B700131013AF9D170470000759301004B
:1093B0000060002029970100102D02005027002096
:0493C0005027002012
:1093C4001FB50021039001AA44F20100CDE9011167
:1093D40007F048FE05B05DF804FB000012F003033B
:1093E40010B513D10A4C22604C1CE400A4B22244F0
:1093F400084C2260084A1370084A1370084A108007
:10940400084A1180084A1846138010BD0720FCE75B
:1094140074270020702700206E2700207C2700205E
:10942400782700207A2700206C270020074B084A61
:109434001B7812881846074B1B78984284BF511C2E
:109444005B181B1A9BB2D31A98B270477C27002072
:109454007A2700206E2700202DE9F347344D2B880E
:109464008B4206460C4617465DD302A84FF000080F
:1094740000F8018D00F0CCF8DFF8C8E02D499EF823
:1094840000C00B78DAB22C4B1888824238BF013204
:109494005FFA8CFC38BF5FFA82F8C4453DD091F87E
:1094A40000800A78D2B2904286BF0132D2B2002242
:1094B4000A709EF800301A460B789A4284BF013035
:1094C4001B189B1A1D4A11889BB2994200D2138023
:1094D4009DF8070000F0C0F84FF6FF73984524D0BC
:1094E400DFF864A0DAF800304FEAC80903EB090298
:1094F40043F83870A6B19CB1114B28881B682246EA
:1095040008FB0030314609F091FBDAF800304B4497
:1095140000209C8002B0BDE8F0874FF6FF78D7E7C3
:1095240000209080F6E70920F4E70420F2E700BF6A
:10953400782700206E2700207A2700206C2700203F
:10954400702700207C2700207427002007B502A87C
:10955400002300F8013D00F05BF8064A9DF807007F
:109564001368591C1CBF0133136000F075F803B075
:109574005DF804FB8027002007B502A8002300F84B
:10958400013D00F045F8064A13680BB1013B136036
:109594009DF8070000F060F803B05DF804FB00BF1D
:1095A40080270020F8B5134E134C356825B9134BAA
:1095B40022781B789A4200D1F8BD22781048114BCA
:1095C40007881B681048D2B211B203EBC10C0068C3
:1095D40053F83130BCF8041002FB070098470B4BDA
:1095E40022781B88D2B2934286BF531CDBB22B462F
:1095F4002370DAE7802700207C2700206E270020D4
:109604007827002074270020702700207A27002064
:1096140070B5EFF3108672B60C4A946801239CB9B6
:1096240093600B4B0B4DD3F8801029401160C3F8A5
:109634008050D3F8841051604FF0FF32C3F8842077
:10964400047006B962B670BD0370FAE7842700207F
:1096540000E100E0FC06FFBD084B9A6810B55AB162
:1096640050B9EFF3108172B6054A1C6814605C6847
:109674005460986001B962B610BD00BF8427002011
:1096840000E100E00B684A684360934208BF00238E
:10969400016008BF43607047436843B10268916842
:1096A40052680B449342436004BF002343607047F5
:1096B4000C4B1B78062B10D10B4B1B681A070CD1D3
:1096C4000A4B186800F0F003302B08D000F0E000DB
:1096D400A0F14003584258417047002070470120D0
:1096E400704700BFE00F00F0E40F00F0E80F00F057
:1096F400094B1B78062B0CD1084B1B681A0708D1A1
:10970400074B186800F0F000A0F1300358425841AC
:1097140070470020704700BFE00F00F0E40F00F036
:10972400E80F00F008B5FFF7C3FF28B16F4B704A8C
:109734001B68C3F304231360FFF7DAFF10B16D4B0A
:109744006D4A1A606D4B6E4A1B68C3F34233136053
:10975400FFF7CEFF20B16B4AD36823F08073D36048
:109764004FF080430022C3F80C21C3F81021C3F842
:109774003825FFF7BDFF10B1634B03221A60FFF7D2
:10978400B7FF40B1614B05221A6001229A6700229B
:109794009A603F225A604FF080525D4BD2F8041415
:1097A400C3F82015D2F80814C3F82415D2F80C1401
:1097B400C3F82815D2F81014C3F82C15D2F81414D1
:1097C400C3F83015D2F81814C3F83415D2F81C14A1
:1097D400C3F84015D2F82014C3F84415D2F8241461
:1097E400C3F84815D2F82814C3F84C15D2F82C1431
:1097F400C3F85015D2F83014C3F85415D2F8341401
:10980400C3F86015D2F83814C3F86415D2F83C14C0
:10981400C3F86815D2F84014C3F86C15D2F8442480
:10982400C3F8702503F54053FB22C3F81825FFF74E
:109834003FFF28B1374B384A1B6803F04F031360CE
:109844004FF08043D3F80024D20744BF6FF00102E5
:10985400C3F80024314B1B68062B08D1304B1B681E
:10986400062B01BF2F4A136843F4806313604FF043
:109874001023D3F80022002A03DBD3F80432002B90
:109884002FDA294B0122C3F80425D3F80024002A37
:10989400FBD04FF010221521C2F80012D3F8002497
:1098A400002AFBD04FF010231522C3F804221E4BCC
:1098B4001A46D3F800140029FBD00021C3F804157C
:1098C400D2F80034002BFBD0BFF34F8F1749184B4D
:1098D400CA6802F4E0621343CB60BFF34F8F00BF4A
:1098E400FDE7144B144A1A6008BD00BF240300109E
:1098F4004035014074C007400DF0ADBA4402001079
:109904003C050040F0ED00E0A0050040105600408A
:1099140000C0004058020010E40E00403001001066
:10992400340100103C17004000E0014000ED00E06D
:109934000400FA05502700200090D003044B1A5C61
:10994400012393404FF0A042C2F80835704700BF8E
:10995400102D020008B50020FFF7F0FF0120FFF7EB
:10996400EDFF0220FFF7EAFF0320BDE80840FFF700
:10997400E5BFC20708B501460CD54FF0A04303224A
:10998400C3F84427C3F84827C3F84C27C3F8502723
:10999400FFF7E0FF8B070AD54FF0A0430C22C3F872
:1099A4003427C3F83827C3F83C27C3F8402708BD39
:1099B40040B149B10378602B06D1012914BF0920B5
:1099C400002070470E2070470720704713460A4650
:1099D4000146602005F0FFBA7FB50C461D460646D9
:1099E40010B90E2004B070BD09B90720FAE7037856
:1099F400682BFAD101230393002AF2D0002DF0D072
:109A04002B68002BEDD0134603AA05F014FB0028A5
:109A1400E8D100902B4603AA2146304605F01CFEEF
:109A24000028DFD1039B9C4218BF0920DAE700001D
:109A34002DE9FF41DDF828800190164600930F467A
:109A440009B90E2019E0002AFBD0002315680393FE
:109A540068238DF80B302A4603AB0DF10B0005F09B
:109A64002CFB50B903AB2A46394601A805F0C9FAC4
:109A740018B9019B23B1039B336004B0BDE8F081A6
:109A8400B8F1000FDDD003AB2A463946684605F02D
:109A9400B8FA0028F1D1009B202B16D005D8012B51
:109AA4000AD0022BCDD10C4C07E0222B11D00ED3BF
:109AB400242BC6D1094C00E0094C03AB2A46394695
:109AC4004046A0470028D6D0D7E7064CF5E7064C19
:109AD400F3E7064CF1E700BF87F501009DC80100DC
:109AE4006DF40100DBC5010035C60100B5C60100F7
:109AF4002DE9FF410E4690461D46074608B90E243F
:109B040001E021B90724204604B0BDE8F0810378C0
:109B1400672BF7D101230393002AF0D0002DEED058
:109B24002B68002BEBD0134603AA05F084FA0446F5
:109B34000028E8D100902B4603AA3146384605F0A8
:109B44008BFD04460028DED12B6823B3D8F800200F
:109B5400212A1AD00DD8022A13D0202A13D0012A80
:109B6400CDD10F4D03AA31463846A84798B10446D3
:109B7400C9E7242A0BD0252A0BD0222ABFD1094DAC
:109B8400F0E7094DEEE7094DECE7094DEAE7094D29
:109B9400E8E7094DE6E7039B9E4218BF0924B2E7B4
:109BA400C5F40100D5C60100A7F5010007C60100F0
:109BB40075C60100CBC8010019CA010013460A4644
:109BC4000146672005F007BA7FB50C461D460646D8
:109BD40010B90E2004B070BD09B90720FAE7037864
:109BE400662BFAD101230393002AF2D0002DF0D082
:109BF4002B68002BEDD0134603AA05F040FA002889
:109C0400E8D1074B009303AA2B462146304605F0C2
:109C140023FD0028DED1039BA34218BF0920D9E706
:109C24001DF5010013460A460146662005F0D3B926
:109C3400F0B50D4685B00646F0B111B9072005B060
:109C4400F0BD0478632CF9D104AC012744F8047DF9
:109C54000092224605F035FB0028F0D100900A9BC3
:109C640022462946304605F0F7FC0028E7D1039B3D
:109C7400AB4218BF0920E2E70E20E0E7F0B587B059
:109C8400144603901F460E4629B322B300231568D9
:109C9400059363238DF813302A4605AB0DF11300A9
:109CA40005F00BFAA8B905AB2A46314603A805F01E
:109CB400A8F970B9039B13B1059B236009E0074B16
:109CC40000932A4605AB3146384605F0A8FC002827
:109CD400F2D007B0F0BD0E20FBE700BFDDF30100BA
:109CE400F0B585B00C461F460A9E054610B90E20F5
:109CF40005B0F0BD09B90720FAE70378642BFAD15F
:109D040001230393002AF2D0002FF0D0002EEED0CE
:109D14001368002BEBD03B68002BE8D03368002B92
:109D2400E5D0104B0093134603AA05F095FC0028D8
:109D3400DED10023009303AA3B462146284605F0C2
:109D44008BFC0028D4D10090334603AA2146284630
:109D540005F082FC0028CBD1039B9C4218BF09204C
:109D6400C6E700BF0BF401002DE9F04387B01746A6
:109D74000390DDF838908DF80B308846002939D0EF
:109D8400002A37D000231568059305AE64238DF8A7
:109D940013302A4633460DF1130005F08EF90446BC
:109DA40058B933462A46414603A805F02AF9044621
:109DB40018B9039B2BB1059B3B60204607B0BDE857
:109DC400F08333462A4641460DF10B0005F075F940
:109DD40004460028F1D1B9F1000FECD09DF80B1026
:109DE40000962B464246484605F099FA0028E2D0F0
:109DF4000446E2E70E24E0E77FB50C461D4606461E
:109E040010B90E2004B070BD09B90720FAE7037831
:109E1400622BFAD101230393002AF2D0002DF0D053
:109E24001368002BEDD02B68002BEAD00A4B00936B
:109E3400134603AA05F010FC0028E3D100902B463A
:109E440003AA2146304605F007FC0028DAD1039B1B
:109E54009C4218BF0920D5E755F40100F0B587B03E
:109E6400144603901F460E4629B322B300231568F7
:109E7400059362238DF813302A4605AB0DF11300C8
:109E840005F01BF9A8B905AB2A46314603A805F02D
:109E9400B8F870B9039B13B1059B236009E0074B25
:109EA40000932A4605AB3146384605F0B8FB002836
:109EB400F2D007B0F0BD0E20FBE700BFBFF00100F9
:109EC4001FB50C46134610B90E2004B010BD09B9D5
:109ED4000720FAE70278652AFAD101220392002BBF
:109EE400F2D01A68002AEFD00022009203AA05F0EB
:109EF400B3FB0028E9D1039B9C4218BF0920E4E787
:109F0400F0B585B0144601901E460F4611B90E20D7
:109F140005B0F0BD002AFAD0002315680393652329
:109F24008DF80B302A4603AB0DF10B0005F0C5F894
:109F34000028EDD103AB2A46394601A805F061F8A3
:109F44000028E5D1019B13B1039B2360E0E7002EB9
:109F5400DDD003AB2A463946304605F0F4FA002832
:109F6400F2D0D5E713B5134610B90E2002B010BDD8
:109F740009B90720FAE70278672AFAD10122019287
:109F8400002BF2D001AA05F056F8EFE72DE9F043D3
:109F9400884685B014461E46814620B90E252846BB
:109FA40005B0BDE8F08309B90725F8E70378692B04
:109FB400FAD104AF012347F8043D13463A4605F0AD
:109FC4003AF805460028EAD1009033463A4641461D
:109FD400484605F041FB05460028E0D1336823B923
:109FE400039B434518BF0925D9E72268232A32D0A9
:109FF4000ED8202A1BD004D8012A2FD000242646AC
:10A0040017E0212A24D0222AF8D19C1C1C4E10E0EF
:10A01400412A26D004D8402AF0D11C46194E08E023
:10A02400A02A21D0A12AE9D11C46174E01E0174EDF
:10A034009C1C203A032A1AD9002EAFD0002CADD094
:10A0440023463A4641464846B0470028C8D015E062
:10A054009C1C0F4EEDE79C1C0E4EEAE71C460E4E70
:10A06400E7E71C460D4EE4E71C460D4EE1E73A4691
:10A074004146484605F02EF80028DDD005468EE717
:10A084008BEF010081CA0100C7EF010053CA010030
:10A09400E9DC01006FCC0100CFF50100F9C8010033
:10A0A4009FEF010013460A460146692004F093BF5E
:10A0B400F7B50E4615460746E8B1E2B102AC0023F7
:10A0C40044F8043D531C224605F004F888B92B4695
:10A0D40022463146384604F0FDFF50B96B1D224636
:10A0E4003146384604F0F6FF18B9019B9E4218BF6A
:10A0F400092003B0F0BD0E20FBE71FB51446019004
:10A1040069B162B104AB002243F8042D01A82268AE
:10A1140004F077FF08B9039B236004B010BD0E2040
:10A12400FBE710B4002A00F0B980002B00F0B680E1
:10A13400002800F0B3800488013C562C00F2A9806A
:10A14400DFE804F02F2CA7A7A7A7A7A7A7A7A7A76F
:10A15400A7A7A7504D3235383E5641593B444A478C
:10A16400A753A7A45F5CA7A7A762A7A7A7A7A7A7AA
:10A17400A7A7A76E7D6568836B74807A71867789DB
:10A18400A7A7A7A7A7A7A7A7A7A7A7A7A7A7A7A75B
:10A19400A7A7A795989B8C929E8FA10010BC00F056
:10A1A4007FB810BC00F0C2B810BC01F0F1B910BC0B
:10A1B40001F00DBC10BC01F0DCBB10BC01F094B983
:10A1C40010BC01F021BB10BC01F060B910BC01F05F
:10A1D4000DBA10BC01F059BB10BC01F054BC10BC4A
:10A1E40001F060BA10BC01F02FBA10BC01F01DBC24
:10A1F40010BC01F09BBA10BC01F0C6BA10BC01F04F
:10A2040070BC10BC01F0ABBC10BC01F0D6BC10BCDF
:10A2140002F0A8BF10BC03F05CB810BC02F0DFBFB2
:10A2240010BC03F0D0B810BC03F090B810BC03F01D
:10A2340007B910BC03F07EB910BC03F0B8B910BC68
:10A2440003F03BB910BC03F007B810BC02F04DBFDB
:10A2540010BC03F0E9B910BC03F023BA10BC04F03D
:10A2640099BA10BC04F016BB10BC04F0C0BA10BC00
:10A2740004F03EBB10BC04F033BA10BC04F0DDBAE9
:10A2840010BC04F08DBB10BC04F0B7BB10BC01F0D3
:10A2940032BB00221A60062010BC70470E20FBE778
:10A2A400F0B5154685B01F46044600283AD0002A6A
:10A2B40038D0002B36D00388022B35D13E68ADF858
:10A2C4000A300022039203AB324629460DF10A00FC
:10A2D40004F0C4FE20BB03AB32462946201D04F023
:10A2E400BDFEE8B903AB3246294604F1080004F088
:10A2F400E4FEA8B903AB3246294604F1100004F089
:10A30400ADFE68B9009003AB32462946E06805F01B
:10A3140086F928B9A08805F083FA08B9039B3B6045
:10A3240005B0F0BD0E20FBE70720F9E7F7B51546A9
:10A334001E46044620B31AB313B30388012B21D15C
:10A344003768ADF802300022019201AB3A46294643
:10A354000DF1020004F082FE80B901AB3A462946B1
:10A36400201D04F07BFE48B901AB3A46294604F1AE
:10A37400080004F0A2FE08B9019B336003B0F0BDED
:10A384000E20FBE70720F9E7F7B50D461F46064602
:10A39400E8B111B9072003B0F0BD0378732BF9D1EC
:10A3A40002AC012344F8043D1346224604F092FE15
:10A3B4000028F0D13B4622462946304604F08AFE66
:10A3C4000028E8D1019BAB4218BF0920E3E70E2027
:10A3D400E1E713460A460146732004F0FCBD37B595
:10A3E40013460C4698B111B9072003B030BD02786A
:10A3F400742AF9D102AA012542F8045D04F06AFE28
:10A404000028F2D1019B9C4218BF0920EDE70E20E1
:10A41400EBE713460A460146742004F0DCBD1FB581
:10A424000C46134610B90E2004B010BD09B907201C
:10A43400FAE70278792AFAD101220392002BF2D0AA
:10A444001A68002AEFD00022009203AA05F004F94A
:10A454000028E9D1039B9C4218BF0920E4E70000CF
:10A46400F0B587B0144603901F460E4629B322B3B5
:10A4740000231568059379238DF813302A4605AB1C
:10A484000DF1130004F019FEA8B905AB2A463146B4
:10A4940003A804F0B6FD70B9039B13B1059B2360B8
:10A4A40009E0074B00932A4605AB3146384605F0D0
:10A4B400B6F80028F2D007B0F0BD0E20FBE700BFCD
:10A4C40061F0010013B513460C4610B90E2002B01A
:10A4D40010BD09B90720FAE70278782AFAD10122D7
:10A4E4000192002BF2D001AA04F0C9FD0028EED19C
:10A4F400019BA34218BF0920E9E713460A46014617
:10A50400782004F068BD7FB50C461E46054610B998
:10A514000E2004B070BD09B90720FAE70378802B38
:10A52400FAD101230393002AF2D0002EF0D013466F
:10A5340003AA04F0A4FD0028EBD1334603AA214664
:10A54400284604F0C7FD0028E3D13378012B04D05A
:10A5540004D3022BE0D1102000E0062080B2CDE924
:10A564000000089B03AA2146284604F074FE002834
:10A57400CFD1039B9C4218BF0920CAE713460A4661
:10A584000146802004F027BD7FB50C461D460646D3
:10A5940010B90E2004B070BD09B90720FAE703789A
:10A5A4007E2BFAD101230393002AF2D0002DF0D0A0
:10A5B4002B68002BEDD0134603AA04F060FD00289D
:10A5C400E8D1074B009303AA2B462146304605F0F9
:10A5D40043F80028DED1039BA34218BF0920D9E722
:10A5E40069C0010013460A4601467E2004F0F3BC0C
:10A5F4007FB50C461D46064610B90E2004B070BD4A
:10A6040009B90720FAE70378752BFAD101230393DC
:10A61400002AF2D0002DF0D02B68002BEDD0134689
:10A6240003AA04F02CFD0028E8D1074B009303AAE9
:10A634002B462146304605F00FF80028DED1039B57
:10A64400A34218BF0920D9E7D3C2010013460A4622
:10A654000146752004F0BFBC7FB50C461E46054676
:10A6640010B90E2004B070BD09B90720FAE70378C9
:10A67400872BFAD101230393002AF2D0134603AAAD
:10A6840004F0FDFC0028EDD10090334603AA2146D6
:10A69400284604F0E1FF0028E4D1039BA34218BF3D
:10A6A4000920DFE7F0B587B00F4603901C46154636
:10A6B40032B32BB300232668059387238DF8133018
:10A6C400324605AB29460DF1130004F0F6FCA8B997
:10A6D40005AB3246294603A804F093FC70B9039BEA
:10A6E40013B1059B236009E0064B0093324605AB8A
:10A6F4002946384604F093FF0028F2D007B0F0BD95
:10A704000E20FBE7CDBE0100F0B50C4685B0164621
:10A71400054610B90E2005B0F0BD09B90720FAE7C7
:10A7240007787D2FFAD101270397002BF2D00A4A2C
:10A73400009203AA04F090FF0028ECD10090334665
:10A7440003AA2146284604F087FF0028E3D1039B8F
:10A75400A34218BF0920DEE783F001002DE9F0478A
:10A7640086B08A4603909146DDF838801D46002B5A
:10A774003ED0B8F1000F3BD00023D8F80060059319
:10A7840005AF7D238DF8133032463B4629460DF143
:10A79400130004F092FC044660B93B463246294655
:10A7A40003A804F02EFC044620B9039B33B1059B97
:10A7B400C8F80030204606B0BDE8F0870D4B009382
:10A7C40032463B462946484604F029FF0446002801
:10A7D400F0D1B9F1000FEAD0B9F800100097334670
:10A7E4002A46504604F09BFD0028E0D00446E1E7E9
:10A7F4000E24DFE761F00100F0B585B00C461E467B
:10A804000A9F054610B90E2005B0F0BD09B907200E
:10A81400FAE703787C2BFAD101230393002AF2D0C0
:10A82400002EF0D0002FEED00A4B0093134603AA5B
:10A8340004F012FF0028E7D10097334603AA21460B
:10A84400284604F055FD0028DED1039BA34218BF1F
:10A854000920D9E73BC0010013460A4601467C2083
:10A8640004F0B9BB73B50C461E46054610B90E205C
:10A8740002B070BD09B90720FAE70378762BFAD144
:10A8840001230193002AF2D0002EF0D0134601AA2E
:10A8940004F0F5FB0028EBD1334601AA21462846F3
:10A8A40004F018FC0028E3D1019BA34218BF09203F
:10A8B400DEE713460A460146762004F08CBB73B5E6
:10A8C4000C461E46054610B90E2002B070BD09B9EB
:10A8D4000720FAE70378822BFAD101230193002A97
:10A8E400F2D0002EF0D0134601AA04F0C8FB0028D1
:10A8F400EBD1334601AA2146284604F0EBFB00289D
:10A90400E3D1019BA34218BF0920DEE713460A46A0
:10A914000146822004F05FBB7FB50C461E46054607
:10A9240010B90E2004B070BD09B90720FAE7037806
:10A93400812BFAD101230393002AF2D0002EF0D008
:10A94400134603AA04F09BFB0028EBD1074B0093AA
:10A9540003AA33462146284604F07EFE0028E1D1AE
:10A96400039BA34218BF0920DCE700BFEFC6010028
:10A9740013460A460146812004F02DBBF0B585B08C
:10A984000C461F460A9E054610B90E2005B0F0BDC0
:10A9940009B90720FAE70378832BFAD1012303933B
:10A9A400002AF2D0002EF0D0002FEED0134603AAD6
:10A9B40004F065FB0028E9D10B4B009303AA3B4646
:10A9C4002146284604F048FE0028DFD10090334693
:10A9D40003AA2146284604F03FFE0028D6D1039B53
:10A9E400A34218BF0920D1E7E1BD0100F0B587B04B
:10A9F4000F4603901C46154632B32BB3002326683A
:10AA0400059383238DF81330324605AB29460DF1A7
:10AA1400130004F052FBA8B905AB3246294603A83B
:10AA240004F0EFFA70B9039B13B1059B236009E0AE
:10AA3400064B0093324605AB2946384604F0EFFD39
:10AA44000028F2D007B0F0BD0E20FBE709C70100D3
:10AA54002DE9FF410A9E0C469846054618B90E207A
:10AA640004B0BDE8F08109B90720F9E70378842B25
:10AA7400FAD101230393002AF1D0B8F1000FEED0EC
:10AA8400002EECD0134603AA04F0F9FA0028E7D10B
:10AA94000B4F0097434603AA2146284604F0DCFDE9
:10AAA4000028DDD10097334603AA2146284604F046
:10AAB400D3FD0028D4D1039BA34218BF0920CFE7BC
:10AAC40055C7010013460A460146842004F083BAA0
:10AAD4001FB50C46134610B90E2004B010BD09B9B9
:10AAE4000720FAE702787B2AFAD101220392002B8D
:10AAF400F2D01A68002AEFD0012901D80920ECE726
:10AB04000022009203AA04F0A7FD0028E5D1039BCC
:10AB14009C42E2D0F2E70000F0B587B014460390FF
:10AB24001F460E4629B322B30023156805937B23E1
:10AB34008DF813302A4605AB0DF1130004F0BDFA6D
:10AB4400A8B905AB2A46314603A804F05AFA70B9ED
:10AB5400039B13B1059B236009E0074B00932A462E
:10AB640005AB3146384604F05AFD0028F2D007B050
:10AB7400F0BD0E20FBE700BF5DC201001FB50C460F
:10AB8400134610B90E2004B010BD09B90720FAE726
:10AB940002787A2AFAD101220392002BF2D0064AD3
:10ABA400009203AA04F058FD0028ECD1039BA342B1
:10ABB40018BF0920E7E700BFD3C2010013460A46C5
:10ABC40001467A2004F007BAF0B585B00C461F465A
:10ABD4000A9E054610B90E2005B0F0BD09B907203C
:10ABE400FAE703788E2BFAD101230393002AF2D0DB
:10ABF400002FF0D03B68002BEDD0134603AA04F0DD
:10AC04003EFA0028E8D100903B4603AA2146284694
:10AC140004F022FD0028DFD1002EDCD03368002BA5
:10AC2400D9D00023009303AA33462146284604F0D2
:10AC340013FD0028D0D1039B9C4218BF0920CBE709
:10AC44002DE9F04186B01446039098460E4671B340
:10AC54006AB30023156805938E238DF813302A46B2
:10AC640005AB0DF1130004F028FAE8B905AB2A4648
:10AC7400314603A804F0C5F9B0B9039B13B1059B91
:10AC8400236011E00B4F009705AB2A46314640463E
:10AC940004F0C5FC40B9009705AB2A4631460C9830
:10ACA40004F0BDFC0028EAD006B0BDE8F0810E2017
:10ACB400FAE700BFBFF00100F7B5089E0C461F4637
:10ACC400054610B90E2003B0F0BD09B90720FAE714
:10ACD4000378882BFAD101230193002AF2D0002FA4
:10ACE400F0D0002EEED0134601AA04F0C8F90028D3
:10ACF400E9D13B4601AA2146284604F0EBF9002895
:10AD0400E1D1334601AA2146284604F0E3F900289C
:10AD1400D9D1019BA34218BF0920D4E713460A46A0
:10AD24000146882004F057B913B513460C4610B9F0
:10AD34000E2002B010BD09B90720FAE70278892A6B
:10AD4400FAD101220192002BF2D001AA04F097F962
:10AD54000028EED1019BA34218BF0920E9E713465E
:10AD64000A460146892004F036B900002DE9FF4166
:10AD74000C469846DDE90A76054618B90E2004B05B
:10AD8400BDE8F08109B90720F9E70378862BFAD1E9
:10AD940001230393002AF1D0B8F1000FEED0002F65
:10ADA400ECD0002EEAD0D8F80030002BE6D03B6877
:10ADB400002BE3D03368002BE0D0134603AA04F041
:10ADC4005EF90028DBD1114B009303AA43462146C8
:10ADD400284604F041FC0028D1D10D4B009303AA6E
:10ADE4003B462146284604F037FC0028C7D1094BCE
:10ADF400009303AA33462146284604F02DFC00287C
:10AE0400BDD1039B9C4218BF0920B8E7EBBF0100EA
:10AE1400B1BD0100C9BD010013460A4601468620A2
:10AE240004F0D9B82DE9FF410C469846DDE90A76CD
:10AE3400054618B90E2004B0BDE8F08109B9072011
:10AE4400F9E703787F2BFAD101230393002AF1D089
:10AE5400B8F1000FEED0002FECD03B68002BE9D006
:10AE6400002EE7D03368002BE4D0134603AA04F085
:10AE740006F90028DFD1434603AA2146284604F0F8
:10AE840029F90028D7D10C4B009303AA3B4621464D
:10AE9400284604F0E1FB0028CDD1084B009303AA17
:10AEA40033462146284604F0D7FB0028C3D1039B30
:10AEB400A34218BF0920BEE769C0010079C501009B
:10AEC400F0B587B0144603901F460E4629B322B34B
:10AED4000023156805937F238DF813302A4605ABAC
:10AEE4000DF1130004F0E9F8A8B905AB2A46314680
:10AEF40003A804F086F870B9039B13B1059B236083
:10AF040009E0074B00932A4605AB3146384604F066
:10AF140086FB0028F2D007B0F0BD0E20FBE700BF8F
:10AF24003DC50100F7B5089E0C461F46054610B9FD
:10AF34000E2003B0F0BD09B90720FAE70378772B98
:10AF4400FAD101230193002EF2D0134601AA04F092
:10AF5400C1F80028EDD13B4601AA2146284604F059
:10AF64008EF80028E5D1334601AA2146284604F08C
:10AF7400B1F80028DDD1019BA34218BF0920D8E70E
:10AF840013460A460146772004F025B830B5134627
:10AF940085B00C46A8B111B9072005B030BD0278C0
:10AFA4006D2AF9D104AA012542F8045D0025009513
:10AFB40004F052FB0028F0D1039B9C4218BF0920E7
:10AFC400EBE70E20E9E7F0B585B0144601901E4684
:10AFD4000F4611B90E2005B0F0BD002AFAD00023A7
:10AFE400156803936D238DF80B302A4603AB0DF1DE
:10AFF4000B0004F062F80028EDD103AB2A46394671
:10B0040001A803F0FEFF0028E5D1019B13B1039BC7
:10B014002360E0E7002EDDD003AB2A4639463046F4
:10B0240000F0E8FE0028F2D0D5E7000030B5134662
:10B0340085B00C46A8B111B9072005B030BD02781F
:10B044006C2AF9D104AA012542F8045D064D009545
:10B0540004F002FB0028F0D1039BA34218BF09208F
:10B06400EBE70E20E9E700BFA3BF010013460A4641
:10B0740001466C2003F0AFBF30B5134685B00C46D3
:10B08400A8B111B9072005B030BD0278702AF9D1F2
:10B0940004AA012542F8045D064D009504F0DCFA8B
:10B0A4000028F0D1039BA34218BF0920EBE70E2030
:10B0B400E9E700BFC9C9010013460A4601467020EA
:10B0C40003F089BF30B5134685B00C46A8B111B959
:10B0D400072005B030BD0278712AF9D104AA0125F0
:10B0E40042F8045D064D009504F0B6FA0028F0D14C
:10B0F400039B9C4218BF0920EBE70E20E9E700BF41
:10B10400C9C90100F0B587B0144603901F460E4626
:10B1140029B322B300231568059371238DF81330E6
:10B124002A4605AB0DF1130003F0C7FFA8B905AB20
:10B134002A46314603A803F064FF70B9039B13B198
:10B14400059B236009E0074B00932A4605AB314673
:10B15400384604F064FA0028F2D007B0F0BD0E209F
:10B16400FBE700BF79C901002DE9FF470D461646EC
:10B174009846074620B90E24204604B0BDE8F0875F
:10B1840009B90724F8E702786E2AFAD1012203925A
:10B19400002EF0D03268002AEDD01268002AEAD0DE
:10B1A40003AA03F097FF04460028E5D10DF10B0331
:10B1B40003AA2946384603F08DFF04460028DBD154
:10B1C4009DF80B30012B19D1DFF838A0D6F8009088
:10B1D400064698F80030B34204D8039BAB4218BF2C
:10B1E4000924C9E7CDF800A009EB860303AA294680
:10B1F400384604F031FA18B90136EAE73060ECE772
:10B204000446B9E7A3BF010013460A4601466E206F
:10B2140003F0E1BE2DE9F04F85B00D4690461F4680
:10B22400DDF83890064620B90E24204605B0BDE866
:10B23400F08F09B90724F8E703786F2BFAD10123BB
:10B244000393002AF0D01368002BEDD01B68002B69
:10B25400EAD0002FE8D03B68002BE5D01B68002B18
:10B26400E2D04B4603AA03F035FF04460028DCD1A4
:10B274000DF10B0303AA2946304603F02BFF0446C5
:10B284000028D2D19DF80B30012B33D1DFF88CB0DC
:10B29400D8F800A0804699F8003043451BD80DF13A
:10B2A4000B0303AA2946304603F014FF0446002882
:10B2B400BBD19DF80B30012B2BD1DFF864A0D7F85C
:10B2C4000080074699F80030BB4216D8039BAB4276
:10B2D40018BF0924A9E7CDF800B00AEB880303AA34
:10B2E4002946304604F0B8F9044600289DD108F1F7
:10B2F4000108D0E7C8F80000D1E7CDF800A008EBBA
:10B30400870303AA2946304604F0A6F918B9013781
:10B31400D8E73860DAE7044687E700BF1DBD0100BF
:10B32400B1BD010013460A4601466F2003F053BE27
:10B334007FB50C461D46064610B90E2004B070BDFC
:10B3440009B90720FAE703788F2BFAD10123039375
:10B35400002AF2D0002DF0D02B68002BEDD013463C
:10B3640003AA03F08CFE0028E8D1074B009303AA3C
:10B374002B462146304604F06FF90028DED1039BAA
:10B38400A34218BF0920D9E7DFCA010013460A46C1
:10B3940001468F2003F01FBEF0B585B00C461F4652
:10B3A4000A9E054610B90E2005B0F0BD09B9072064
:10B3B400FAE70378722BFAD101230393002AF2D01F
:10B3C4001368002BEFD0002FEDD03B68002BEAD0A0
:10B3D400002EE8D03368002BE5D0104B00931346C1
:10B3E40003AA04F039F90028DED10D4B009303AA17
:10B3F4003B462146284604F02FF90028D4D1094BB6
:10B40400009303AA33462146284604F025F9002870
:10B41400CAD1039B9C4218BF0920C5E7D9F001009B
:10B424000DCB0100ADC70100F0B587B01446039001
:10B434001F460E4629B322B30023156805937223D1
:10B444008DF813302A4605AB0DF1130003F035FED9
:10B45400A8B905AB2A46314603A803F0D2FD70B95A
:10B46400039B13B1059B236009E0074B00932A4615
:10B4740005AB3146384604F0D2F80028F2D007B0C4
:10B48400F0BD0E20FBE700BFBFF00100F7B5154685
:10B494001E46044620B31AB313B30388172B21D1D5
:10B4A4003768ADF802300022019201AB3A462946D2
:10B4B4000DF1020003F0D2FD80B901AB3A462946F2
:10B4C400201D03F0CBFD48B901AB3A46294604F1EF
:10B4D400080003F0F2FD08B9019B336003B0F0BD2E
:10B4E4000E20FBE70720F9E72DE9FF4116469846B1
:10B4F4000546002845D0002A43D0002B41D00388BC
:10B50400192B40D1D8F80070ADF806300022029211
:10B5140002AB3A4631460DF1060003F09FFD0446A6
:10B52400C0B902AB3A463146281D03F097FD0446E4
:10B5340080B902AB3A46314605F1080000F004FF39
:10B54400044638B903A9A88804F0DEF830B1029B98
:10B55400C8F80030204604B0BDE8F08131460398B5
:10B564000A4E3A464FF4967702AB07FB006000F0B0
:10B57400E3FF20B9A88804F0B1F80028E7D0044616
:10B58400E8E70E24E6E70724E4E700BFB42F002031
:10B59400F7B515461E46044620B31AB313B3038801
:10B5A400122B21D13768ADF802300022019201AB91
:10B5B4003A4629460DF1020003F050FD80B901AB73
:10B5C4003A462946201D03F049FD48B901AB3A46E5
:10B5D400294604F1080000F097FF08B9019B336085
:10B5E40003B0F0BD0E20FBE70720F9E7F7B51546D9
:10B5F4001E46044620B31AB313B303881A2B21D171
:10B604003768ADF802300022019201AB3A46294670
:10B614000DF1020003F022FD80B901AB3A46294640
:10B62400201D03F01BFD48B901AB3A46294604F13D
:10B63400080000F0D9FE08B9019B336003B0F0BDE7
:10B644000E20FBE70720F9E7F7B515461E4604462A
:10B6540020B31AB313B30388102B21D13768ADF884
:10B6640002300022019201AB3A4629460DF1020054
:10B6740003F0F4FC80B901AB3A462946201D03F0DF
:10B68400EDFC48B901AB3A46294604F1080000F044
:10B69400EBFE08B9019B336003B0F0BD0E20FBE75D
:10B6A4000720F9E72DE9FF4116461F460546002805
:10B6B40038D0002A36D0002B34D00388112B33D154
:10B6C400D7F80080ADF806300022029202AB424661
:10B6D40031460DF1060003F0C1FC0446B8B902ABD3
:10B6E40042463146281D03F0B9FC044678B902AB42
:10B6F4004246314605F1080000F014FF044630B913
:10B7040003A9A88804F000F828B1029B3B602046F6
:10B7140004B0BDE8F081A88803F0E0FF0028F4D06D
:10B724000446F4E70E24F2E70724F0E7F7B51546DC
:10B734001E46044620B31AB313B30388162B21D133
:10B744003768ADF802300022019201AB3A4629462F
:10B754000DF1020003F082FC80B901AB3A462946A0
:10B76400201D03F07BFC48B901AB3A46294604F19D
:10B77400080003F0A2FC08B9019B336003B0F0BDDC
:10B784000E20FBE70720F9E7F0B5144685B01F4605
:10B794000546002832D08AB383B30388182B2FD1EF
:10B7A4003E68ADF80A300022039203AB32462146CC
:10B7B4000DF10A0003F052FCF0B92B7BC3F3000334
:10B7C4008DF80930324603AB2146281D03F046FCB0
:10B7D40090B90C4B0093324603AB2146A86803F0A2
:10B7E4001EFF48B903AB324621460DF1090003F0B0
:10B7F40064FC08B9039B3B6005B0F0BD0E20FBE779
:10B804000720F9E795BD01002DE9FF41144698464C
:10B814000546B0B3AAB3A3B30388152B33D1D8F824
:10B824000060ADF80A30002203AF03923B46324673
:10B8340021460DF10A0003F011FCF8B9AB7BC3F308
:10B8440000038DF8093032463B462146281D03F09B
:10B8540005FC98B9009733462246062105F10800F5
:10B8640003F05DFD50B93B46324621460DF1090017
:10B8740003F023FC10B9039BC8F8003004B0BDE802
:10B88400F0810E20FAE70720F8E7F7B515461F46C2
:10B89400044660B35AB353B303881C2B29D13E68C2
:10B8A400ADF802300022019201AB324629460DF177
:10B8B400020003F0D3FBC0B901AB32462946201D78
:10B8C40003F0CCFB88B901AB3246294604F10800E9
:10B8D40003F0F3FB48B901AB3246294604F10900F1
:10B8E40003F0EBFB08B9019B3B6003B0F0BD0E20F5
:10B8F400FBE70720F9E7F7B515461F460446A0B352
:10B904009AB393B30388202B31D13E68ADF802304B
:10B914000022019201AB324629460DF1020003F0E8
:10B924009DFB00BB01AB32462946201D03F096FB6C
:10B93400C8B901AB3246294604F1080003F0BDFB47
:10B9440088B901AB3246294604F10A0000F052FAE4
:10B9540048B901AB3246294604F1090003F0ADFBB6
:10B9640008B9019B3B6003B0F0BD0E20FBE7072044
:10B97400F9E7F7B515461E46044620B31AB313B3C8
:10B984000388142B21D13768ADF8023000220192CC
:10B9940001AB3A4629460DF1020003F05FFB80B982
:10B9A40001AB3A462946201D03F058FB48B901ABC8
:10B9B4003A46294604F1080000F024FD08B9019B29
:10B9C400336003B0F0BD0E20FBE70720F9E7F7B5BD
:10B9D40015461E46044620B31AB313B30388132B2B
:10B9E40021D13768ADF802300022019201AB3A460A
:10B9F40029460DF1020003F031FB80B901AB3A4650
:10BA04002946201D03F02AFB48B901AB3A462946D2
:10BA140004F1080000F06AFD08B9019B336003B02B
:10BA2400F0BD0E20FBE70720F9E7F7B515461E46E3
:10BA3400044620B31AB313B303881E2B21D13768ED
:10BA4400ADF802300022019201AB3A4629460DF1CD
:10BA5400020003F003FB80B901AB3A462946201DDE
:10BA640003F0FCFA48B901AB3A46294604F1080050
:10BA740000F09EFD08B9019B336003B0F0BD0E20B9
:10BA8400FBE70720F9E7F7B515461E46044620B341
:10BA94001AB313B303881B2B21D13768ADF80230D6
:10BAA4000022019201AB3A4629460DF1020003F04F
:10BAB400D5FA80B901AB3A462946201D03F0CEFAE7
:10BAC40048B901AB3A46294604F1080003F0F5FAF7
:10BAD40008B9019B336003B0F0BD0E20FBE70720DB
:10BAE400F9E7F7B515461F460446A0B39AB393B3D6
:10BAF4000388222B31D13E68ADF802300022019236
:10BB040001AB324629460DF1020003F0A7FA00BB4F
:10BB140001AB32462946201D03F0A0FAC8B901AB97
:10BB24003246294604F1080003F0C7FA88B901AB8C
:10BB34003246294604F1090003F0BFFA48B901ABC3
:10BB44003246294604F10A0003F0B7FA08B9019B0A
:10BB54003B6003B0F0BD0E20FBE70720F9E7F7B523
:10BB640015461E46044620B31AB313B30388212B8B
:10BB740021D13768ADF802300022019201AB3A4678
:10BB840029460DF1020003F069FA80B901AB3A4687
:10BB94002946201D03F062FA48B901AB3A4629460A
:10BBA40004F1080000F082FF08B9019B336003B080
:10BBB400F0BD0E20FBE70720F9E72DE9F341164617
:10BBC4001F46054690B38AB383B30388262B2FD12F
:10BBD400D7F80080ADF802300022019201AB424652
:10BBE40031460DF1020003F039FA0446D0B901AB35
:10BBF40042463146281D03F031FA044690B901ABA0
:10BC04004246314605F1080000F09CFF044648B95D
:10BC1400E86808B103F0B4FD686908B103F0B0FD49
:10BC2400019B3B60204602B0BDE8F0810E24F9E799
:10BC34000724F7E710B4019C10B1A44610BC604778
:10BC44000E2010BC704710B4019C13B1A44610BC64
:10BC540060470E2010BC7047F7B5044617461D46D2
:10BC64000E4699B193B188B1DFF828C0CDF800C071
:10BC7400FFF7E0FF40B9064B00933A462B463146A6
:10BC840004F11200FFF7D6FF03B0F0BD0E20FBE76E
:10BC9400A7C2010061BE0100F7B50F4614461D4658
:10BCA400064698B192B18BB1DFF828C0CDF800C038
:10BCB400FFF7C9FF40B9064B0093224605F1120372
:10BCC40039463046FFF7BFFF03B0F0BD0E20FBE757
:10BCD4001DC30100EBBF0100F7B5044617461D461E
:10BCE4000E4699B193B188B1DFF828C0CDF800C0F1
:10BCF400FFF7A0FF40B9064B00933A462B46314666
:10BD040004F11000FFF796FF03B0F0BD0E20FBE72F
:10BD1400F9BD01005DBD0100F7B50F4614461D468F
:10BD2400064698B192B18BB1DFF828C0CDF800C0B7
:10BD3400FFF789FF40B9064B0093224605F1100333
:10BD440039463046FFF77FFF03B0F0BD0E20FBE716
:10BD5400A3BF0100B1BD010013B549B143B138B16E
:10BD6400009313460A46102103F0D9FA02B010BD1D
:10BD74000E20FBE713B549B143B138B10093134624
:10BD84000A46102103F0CBFA02B010BD0E20FBE7E7
:10BD940013B549B143B138B1009313460A46402163
:10BDA40003F0BDFA02B010BD0E20FBE737B538B181
:10BDB40032B12BB11024009403F0CAFA03B030BDA1
:10BDC4000E20FBE737B538B132B12BB11024009403
:10BDD40003F0BEFA03B030BD0E20FBE737B538B12F
:10BDE40032B12BB14024009403F0B2FA03B030BD59
:10BDF4000E20FBE7F0B5044685B017461D460E46F7
:10BE0400B9B1B3B1A8B1007800F0FE0CC0F30000E2
:10BE14004CEA000C04A800F801CD03F04EF930B947
:10BE240000953B4632460621601C03F078FA05B0C3
:10BE3400F0BD0E20FBE713B571B16BB160B10078B2
:10BE4400C0F3000400F00E00044302A800F8014D02
:10BE540003F033F902B010BD0E20FBE7F0B507463E
:10BE640085B016461D460C46C1B1BBB1B0B10093B6
:10BE740013460A46102103F052FA68B93B7C04A821
:10BE840003F0FE02C3F30003134300F8013D3246FE
:10BE94002B46214603F011F905B0F0BD0E20FBE757
:10BEA40013B571B16BB160B1007800F0F004C0F368
:10BEB4000300044302A800F8014D03F0FEF802B0A9
:10BEC40010BD0E20FBE70000F7B5044617461D46DB
:10BED4000E4689B183B178B1DFF824C0CDF800C033
:10BEE400FFF7A8FE48B92B463A463146601C03B01A
:10BEF400BDE8F04003F0E1B80E2003B0F0BD00BF90
:10BF0400A5BE01002DE9FF41044690461E460F469A
:10BF140071B36BB360B30078C0F3000500F0FE00AA
:10BF2400054304A800F8015D03F0C7F8E8B93346F7
:10BF340042463946601C03F0C0F8B0B93346424665
:10BF44003946A01C03F0B9F878B90A4D0095334678
:10BF540042463946E01CFFF76DFE30B90095334682
:10BF640042463946201DFFF765FE04B0BDE8F08166
:10BF74000E20FAE77DBF010013B571B16BB160B15A
:10BF84000078C0F3000400F00E00044302A800F897
:10BF9400014D03F092F802B010BD0E20FBE7F0B59E
:10BFA4000F4685B015461C460646D0B1CAB1C3B18A
:10BFB4000DF10F0303F08EF888B9062300932A4687
:10BFC400631C3946304603F0C3F940B99DF80F208D
:10BFD400237862F30003520862F34703237005B029
:10BFE400F0BD0E20FBE7F0B50F4685B015461C46A4
:10BFF4000646F0B1EAB1E3B14FF0100CCDF800C041
:10C0040003F0A6F998B90DF10F032A4639463046D4
:10C0140003F060F858B99DF80F20237C510862F3AF
:10C02400000361F34103920862F38703237405B0AC
:10C03400F0BD0E20FBE737B51C4688B182B17BB159
:10C044000DF1070303F046F840B99DF80720237863
:10C0540062F30303120962F30713237003B030BDC4
:10C064000E20FBE72DE9FF410F4615461C46064608
:10C07400002842D0002A40D0002B3ED00DF10F03FF
:10C0840003F028F8B0BB631C2A463946304603F057
:10C0940021F878BBA31C2A463946304603F01AF827
:10C0A40040BBDFF85C80CDF80080E31C2A463946AB
:10C0B4003046FFF7C8FDE8B9CDF80080231D2A46B5
:10C0C40039463046FFF7BFFDA0B99DF80F2023780D
:10C0D400510862F3000361F34103910861F38203A1
:10C0E400D10861F3C303110961F30613D20962F3A2
:10C0F400C713237004B0BDE8F0810E20FAE700BF37
:10C1040009C1010037B51C46B8B1B2B1ABB10DF1EC
:10C11400070302F0DFFF70B99DF807202378510868
:10C1240062F3000361F34103910861F38203D208CF
:10C1340062F3C303237003B030BD0E20FBE7F7B5F1
:10C144000F4615461C460646B8B1B2B1ABB102F073
:10C15400C1FF80B90DF107032A463946304602F083
:10C16400B9FF40B99DF80720637862F300035210C9
:10C1740062F34103637003B0F0BD0E20FBE70000DF
:10C18400F7B5044617461D460E4619B313B308B354
:10C1940011480090206803F042FAC8B90F4B00938D
:10C1A4003A462B463146606803F039FA80B90C4BA5
:10C1B40000933A462B463146A06803F030FA38B96A
:10C1C400084B00933A462B463146E06803F027FAC1
:10C1D40003B0F0BD0E20FBE75DBC0100DDBC010037
:10C1E40079BD010095BD0100F7B50F4614461D4603
:10C1F400064630B32AB323B3DFF858C0CDF800C0E5
:10C2040003F02AFAD8B9104B009322462B1D394665
:10C21400304603F021FA90B90C4B0093224605F105
:10C2240008033946304603F017FA40B9084B009327
:10C23400224605F10C033946304603F00DFA03B0EB
:10C24400F0BD0E20FBE700BF1DBD0100C9BD01000C
:10C25400E1BD01009DBC01002DE9F04104461746F3
:10C264001D460E46D1B1CBB1C0B102F0F7FEB0B954
:10C274002B463A463146A01C02F0F0FE78B92B4614
:10C284003A463146201D02F0E9FE40B92B463A46B3
:10C294003146A01DBDE8F04102F0E0BE0E20BDE82D
:10C2A400F081F7B5044617461D460E4669B163B1E1
:10C2B40058B102F0D3FE30B900953B46324608210E
:10C2C400A01C03F02CF803B0F0BD0E20FBE72DE911
:10C2D400F0410F4614461D460646D0B1CAB1C3B15B
:10C2E40002F0CDFEB0B9AB1C22463946304602F00E
:10C2F400C6FE78B92B1D22463946304602F0BFFEF1
:10C3040040B9AB1D224639463046BDE8F04102F043
:10C31400B6BE0E20BDE8F081F7B50F4614461D46A3
:10C32400064670B16AB163B102F0A9FE38B90823B8
:10C3340000932246AB1C3946304603F009F803B09B
:10C34400F0BD0E20FBE700002DE9FF41044617462F
:10C354001D460E46002941D0002B3FD0F0B390F883
:10C3640001C00CF00C0ECCF3010C4EEA0C0C8DF851
:10C374000FC002F0A2FE70BB2B463A4631460DF1C7
:10C384000F0002F09AFE30BBDFF85480CDF8008035
:10C394002B463A463146A01CFFF74CFCD8B9CDF8E1
:10C3A40000802B463A463146E01CFFF743FC90B927
:10C3B400DFF83080CDF800802B463A463146201D08
:10C3C400FFF738FC38B9CDF800802B463A463146A1
:10C3D400601DFFF72FFC04B0BDE8F0810E20FAE7E2
:10C3E4003BBE01007DBF010037B539B133B128B17F
:10C3F400034C0094FFF71EFC03B030BD0E20FBE796
:10C40400CDBE01002DE9FF41064690461D460F466C
:10C4140019B313B308B3847C04F0060CC4F300040A
:10C424004CEA04048DF80F400D4C0094FFF702FC15
:10C4340080B90C4B009342462B46394606F108005E
:10C44400FFF7F8FB30B92B46424639460DF10F0091
:10C4540002F033FE04B0BDE8F0810E20FAE700BF1D
:10C46400F9BD0100A7C20100F7B5044617461D46F1
:10C474000E4699B393B388B3DFF86CC0CDF800C00F
:10C48400FFF7D8FB58BB2B463A463146E01D02F075
:10C4940014FE20BB134B00933A462B46314604F15D
:10C4A4000800FFF7C7FBD0B92B463A46314604F1E2
:10C4B400100002F002FE90B92B463A46314604F1D0
:10C4C400180002F0CBFD50B92B463A46314604F130
:10C4D400200003B0BDE8F04002F0C0BD0E2003B060
:10C4E400F0BD00BF5DC20100F9BD010037B539B12F
:10C4F40033B128B1034C0094FFF79CFB03B030BD6B
:10C504000E20FBE709BF010037B539B133B128B1BB
:10C51400034C0094FFF78EFB03B030BD0E20FBE705
:10C524005DC2010030B421B11BB110B130BC02F0C6
:10C53400C4BD0E2030BC70472DE9F341044690463B
:10C544001D460F4689B183B178B1094E0096FFF7B5
:10C5540071FB38B900962B464246394604F1100067
:10C56400FFF768FB02B0BDE8F0810E20FAE700BFD8
:10C5740085C101002DE9F341884614461D4607464E
:10C5840088B182B17BB1094E0096FFF75CFB38B9E4
:10C59400009605F11003224641463846FFF753FB47
:10C5A40002B0BDE8F0810E20FAE700BFEDC1010042
:10C5B40013B571B16BB160B10078C0F3000400F041
:10C5C4000E00044302A800F8014D02F076FD02B00B
:10C5D40010BD0E20FBE7F7B5044617461D460E4670
:10C5E40069B163B158B102F039FD30B900953B46E9
:10C5F40032460521A01C02F092FE03B0F0BD0E20CD
:10C60400FBE7F7B50F4614461D46064670B16AB1FE
:10C6140063B102F034FD38B9052300932246AB1C04
:10C624003946304602F094FE03B0F0BD0E20FBE71D
:10C63400F7B5044617461D460E46A9B1A3B198B1F5
:10C6440002F00CFD70B92B463A463146A01C02F0AC
:10C6540005FD38B9054B00933A462B4631466068D0
:10C6640002F0DDFF03B0F0BD0E20FBE761F0010036
:10C67400F7B50F4614461D460646A8B1A2B19BB1B4
:10C6840002F0FDFC70B9AB1C22463946304602F07C
:10C69400F6FC38B9054B009322462B1D394630462B
:10C6A40002F0DAFF03B0F0BD0E20FBE783F00100D7
:10C6B40007B559B153B148B10093006813460A460F
:10C6C400062102F086FD03B05DF804FB0E20FAE7B4
:10C6D40037B540B13AB133B10624CDE9004402F094
:10C6E400BAFD03B030BD0E20FBE737B538B132B127
:10C6F4002BB12024009402F02BFE03B030BD0E2099
:10C70400FBE70000F7B5044617461D460E46D1B1B7
:10C71400CBB1C0B1DFF834C0CDF800C0FFF78AFA5E
:10C7240078B900953B4632461021E01D02F0F7FD32
:10C7340038B900953B463246102104F1170002F047
:10C74400EEFD03B0F0BD0E20FBE700BFF9BD010014
:10C754002DE9F3410F4614461D460646F8B1F2B1E1
:10C76400EBB1DFF840C0CDF800C0FFF76CFA98B920
:10C774004FF01008CDF80080EB1D224639463046B4
:10C7840002F0E6FD40B9CDF8008005F1170322461A
:10C794003946304602F0DCFD02B0BDE8F0810E20DF
:10C7A400FAE700BFA3BF0100F0B50F4685B01546F8
:10C7B4001C460646002868D0002A66D0002B64D0A8
:10C7C400DFF8D0C0CDF800C0FFF73DFA00285AD1F9
:10C7D4002F4B00932A46231D3946304602F03CFF76
:10C7E400002850D104F108032A463946304602F0A5
:10C7F40022FC002847D104F10C032A46394630466E
:10C8040002F03DFC00283ED104F10E032A463946CD
:10C81400304602F05FFCB0BB04AB04F10F0243F8F6
:10C82400042D0522CDE9002239462A46304602F07D
:10C8340012FD40BB04F114032A463946304602F087
:10C8440049FC00BB04F115032A463946304602F080
:10C8540041FCC0B904F116032A463946304602F0B9
:10C8640039FC80B90DF10B032A463946304602F0F3
:10C8740031FC40B99DF80B20E37D62F303031211F0
:10C8840062F30413E37505B0F0BD0E20FBE700BFAF
:10C89400A3BF010043C101002DE9F041044617463E
:10C8A4001D460E4661B15BB150B102F0D7FB40B9F1
:10C8B4002B463A463146A01CBDE8F04102F0CEBBFF
:10C8C4000E20BDE8F0812DE9F0410F4614461D46C7
:10C8D400064660B15AB153B102F0D1FB40B9AB1C6A
:10C8E400224639463046BDE8F04102F0C8BB0E206E
:10C8F400BDE8F0812DE9FF410F4615461C4606466A
:10C90400A0B39AB393B3DFF868C0B3F80A80CDF844
:10C9140000C0FFF798F930BB0DF10F032A463946E2
:10C92400304602F0D7FBF0B963789DF80F2062F32C
:10C93400010363702A4604F108033946304602F0C5
:10C944009EFB80B904F10A032A463946304602F0B8
:10C9540096FB40B923892A46CDE900833946231D35
:10C96400304602F078FC04B0BDE8F0810E20FAE70E
:10C974003BC00100F7B5044617461D460E46E1B11B
:10C98400DBB1D0B102F099FBA8B92B463A46314647
:10C99400601C02F092FB70B92B463A463146A01C4B
:10C9A40002F05CFB38B9064B00933A462B463146FD
:10C9B400606802F034FE03B0F0BD0E20FBE700BF58
:10C9C4005DBD0100F7B50F4614461D460646E0B1AD
:10C9D400DAB1D3B102F07EFBA8B96B1C224639460A
:10C9E400304602F077FB70B9AB1C2246394630461C
:10C9F40002F045FB38B9064B009322462B1D3946FD
:10CA0400304602F029FE03B0F0BD0E20FBE700BF64
:10CA1400B1BD0100F7B50F4615461C460646A0B148
:10CA24009AB193B102F02BFB68B90DF107032A46C2
:10CA34003946304602F04EFB28B9A3789DF807200A
:10CA440062F30003A37003B0F0BD0E20FBE72DE9F1
:10CA5400F0410F4614461D46064660B15AB153B123
:10CA640002F038FB40B9AB1C224639463046BDE8DB
:10CA7400F04102F004BB0E20BDE8F0812DE9F04145
:10CA84000F4615461C46064668B162B15BB10133D8
:10CA940002F020FB40B923462A4639463046BDE819
:10CAA400F04102F017BB0E20BDE8F0812DE9F04102
:10CAB400044617461D460E4661B15BB150B102F003
:10CAC400FCFA40B92B463A463146601CBDE8F041B9
:10CAD40002F0F3BA0E20BDE8F0812DE9F0410F46D3
:10CAE40014461D46064660B15AB153B102F0F2FA3B
:10CAF40040B96B1C224639463046BDE8F04102F08D
:10CB0400E9BA0E20BDE8F0812DE9F34188461446C8
:10CB14001D46074688B182B17BB1094E0096FFF7E6
:10CB240092F838B9009605F1080322464146384682
:10CB3400FFF789F802B0BDE8F0810E20FAE700BFE4
:10CB4400E3F501002DE9F341054617461C460E4660
:10CB5400C9B3C3B3B8B302F0B0FA88BB23463A46AC
:10CB64003146681C02F0A9FA50BB23463A463146C6
:10CB7400A81C02F0A2FA18BB23463A46314605F136
:10CB8400080002F06BFAD8B90DF108086B6848F890
:10CB9400043D3A4623463146404602F032FA78B91B
:10CBA40023463A46314605F1100002F057FA38B9E7
:10CBB400EB6801933A4623463146404602F021FA97
:10CBC40002B0BDE8F0810E20FAE713B571B16BB184
:10CBD40060B10078C0F3000400F07E00044302A8B2
:10CBE40000F8014D02F069FA02B010BD0E20FBE717
:10CBF40037B51C4600B3FAB1F3B10DF1070302F0E7
:10CC040069FAB8B99DF807202378510862F3000344
:10CC140061F34103910861F38203D10861F3C30313
:10CC2400110961F30413510961F34513920962F385
:10CC34008613237003B030BD0E20FBE737B51C46C6
:10CC440088B182B17BB10DF1070302F043FA40B918
:10CC54009DF80720237862F30003520862F341032E
:10CC6400237003B030BD0E20FBE730B420B11AB1FD
:10CC740013B130BC02F003BA0E2030BC7047000080
:10CC84007FB50C461D46064610B90E2004B070BD93
:10CC940009B90720FAE703789F2BFAD101230393FC
:10CCA400002AF2D0002DF0D02B68002BEDD01346D3
:10CCB40003AA02F0E4F90028E8D1074B009303AA81
:10CCC4002B462146304602F0C7FC0028DED1039BE8
:10CCD4009C4218BF0920D9E775D8010013460A46BB
:10CCE40001469F2002F077B9F0B585B00C461F4687
:10CCF4000A9E054610B90E2005B0F0BD09B90720FB
:10CD0400FAE70378A02BFAD101230393002AF2D087
:10CD1400002FF0D03B68002BEDD0002EEBD0336811
:10CD2400002BE8D0134603AA02F0A9F90028E3D1A6
:10CD34000C4B009303AA3B462146284602F08CFC88
:10CD44000028D9D1084B009303AA3346214628462C
:10CD540002F082FC0028CFD1039B9C4218BF09201B
:10CD6400CAE700BF0BF4010075D8010013460A4658
:10CD74000146A02002F02FB9F0B585B00C461D463F
:10CD84000A9F064610B90E2005B0F0BD09B9072068
:10CD9400FAE70378A22BFAD101230393002AF2D0F5
:10CDA400002DF0D02B68002BEDD0002FEBD01346D4
:10CDB40003AA02F064F90028E6D100972B4603AADF
:10CDC4002146304602F09EF90028DDD1039B9C42A7
:10CDD40018BF0920D8E713460A460146A22002F0EC
:10CDE400FAB80000F0B50D4685B01F460646F8B106
:10CDF40011B9072005B0F0BD03789D2BF9D104AC1F
:10CE0400012344F8043D1346224602F038F9002871
:10CE1400F0D1084B009322463B462946304602F0A7
:10CE24001BFC0028E6D1039B9D4218BF0920E1E7C3
:10CE34000E20DFE775D8010013460A4601469D20FF
:10CE440002F0C9B8F0B50D4685B01F460646F8B1E4
:10CE540011B9072005B0F0BD03789E2BF9D104ACBD
:10CE6400012344F8043D1346224602F008F9002841
:10CE7400F0D1084B009322463B462946304602F047
:10CE8400EBFB0028E6D1039B9D4218BF0920E1E794
:10CE94000E20DFE775D8010013460A4601469E209E
:10CEA40002F099B8F7B50D461F460646E8B111B928
:10CEB400072003B0F0BD0378A42BF9D102AC012301
:10CEC40044F8043D1346224602F0D9F80028F0D174
:10CED4003B4622462946304602F0D1F80028E8D1E4
:10CEE400019BAB4218BF0920E3E70E20E1E713469C
:10CEF4000A460146A42002F06EB80000F0B50D46C3
:10CF040085B01F46064638B311B9072005B0F0BDF9
:10CF140003789B2BF9D104AC012344F8043D134658
:10CF2400224602F0ACF80028F0D13B4622462946BE
:10CF3400304602F0A4F80028E8D1084B00932246BA
:10CF44000A9B2946304602F087FB0028DED1039B6A
:10CF54009D4218BF0920D9E70E20D7E70BF4010042
:10CF640013460A4601469B2002F035B8F7B50D4634
:10CF74001F46064628B311B9072003B0F0BD037855
:10CF8400A12BF9D102AC012344F8043D13462246F7
:10CF940002F075F80028F0D13B4622462946304677
:10CFA40002F06DF80028E8D1089B22462946304655
:10CFB40002F065F80028E0D1019B9D4218BF0920CA
:10CFC400DBE70E20D9E713460A460146A12002F00A
:10CFD40002B80000F0B50D4685B01F460646F8B10C
:10CFE40011B9072005B0F0BD03789C2BF9D104AC2E
:10CFF400012344F8043D1346224602F040F8002879
:10D00400F0D1084B009322463B462946304602F0B5
:10D0140023FB0028E6D1039B9D4218BF0920E1E7CA
:10D024000E20DFE775D8010013460A4601469C200E
:10D0340001F0D1BFF0B50D4685B01F460646F8B1E4
:10D0440011B9072005B0F0BD0378A32BF9D104ACC6
:10D05400012344F8043D1346224602F010F8002848
:10D06400F0D1084B009322463B462946304602F055
:10D07400F3FA0028E6D1039B9D4218BF0920E1E79B
:10D084000E20DFE7E9D9010013460A460146A32032
:10D0940001F0A1BFF7B50D461F460646E8B111B928
:10D0A400072003B0F0BD0378A52BF9D102AC01230E
:10D0B40044F8043D1346224601F0E1FF0028F0D174
:10D0C4003B4622462946304601F0D9FF0028E8D1E4
:10D0D400019B9D4218BF0920E3E70E20E1E71346B8
:10D0E4000A460146A52001F076BFF7B515461F464E
:10D0F400044698B392B38BB30388342B30D13E6883
:10D10400ADF802300022019201AB324629460DF1FE
:10D11400020001F0A3FFF8B901AB32462946201DF5
:10D1240001F09CFFC0B901AB32462946A01D01F0B5
:10D1340095FF88B901AB3246294604F1080001F095
:10D144008DFF48B901AB3246294604F10A0000F0CC
:10D1540077FC08B9019B3B6003B0F0BD0E20FBE7F0
:10D164000720F9E7F7B515461F46044698B392B36E
:10D174008BB30388322B30D13E68ADF802300022E5
:10D18400019201AB324629460DF1020001F066FF1F
:10D19400F8B901AB32462946201D01F05FFFC0B942
:10D1A40001AB32462946A01D01F058FF88B901ABF6
:10D1B4003246294604F1080001F050FF48B901AB9A
:10D1C4003246294604F10A0000F080FC08B9019BAC
:10D1D4003B6003B0F0BD0E20FBE70720F9E7F7B58D
:10D1E40015461F46044698B392B38BB30388352B78
:10D1F40030D13E68ADF802300022019201AB3246D4
:10D2040029460DF1020001F029FFF8B901AB3246BD
:10D214002946201D01F022FFC0B901AB3246294640
:10D22400A01D01F01BFF88B901AB3246294604F169
:10D23400080001F013FF48B901AB3246294604F156
:10D244000A0000F069FB08B9019B3B6003B0F0BD24
:10D254000E20FBE70720F9E7F7B515461F460446FD
:10D2640098B392B38BB30388372B30D13E68ADF8B3
:10D2740002300022019201AB324629460DF1020030
:10D2840001F0ECFEF8B901AB32462946201D01F04D
:10D29400E5FEC0B901AB32462946A01D01F0DEFE11
:10D2A40088B901AB3246294604F1080001F0D6FEE4
:10D2B40048B901AB3246294604F10A0000F04FFB9D
:10D2C40008B9019B3B6003B0F0BD0E20FBE70720CB
:10D2D400F9E7F7B515461F46044698B392B38BB3E6
:10D2E4000388332B30D13E68ADF80230002201921E
:10D2F40001AB324629460DF1020001F0AFFEF8B948
:10D3040001AB32462946201D01F0A8FEC0B901AB8D
:10D3140032462946A01D01F0A1FE88B901AB324670
:10D32400294604F1080001F099FE48B901AB3246E0
:10D33400294604F10A0000F0F5FB08B9019B3B60A3
:10D3440003B0F0BD0E20FBE70720F9E7F7B515465B
:10D354001F46044698B392B38BB30388392B30D15C
:10D364003E68ADF802300022019201AB32462946F4
:10D374000DF1020001F072FEF8B901AB3246294604
:10D38400201D01F06BFEC0B901AB32462946A01D39
:10D3940001F064FE88B901AB3246294604F1080065
:10D3A40001F05CFE48B901AB3246294604F10A009B
:10D3B40000F0E4FB08B9019B3B6003B0F0BD0E2014
:10D3C400FBE70720F9E7F7B515461F46044698B36F
:10D3D40092B38BB30388302B30D13E68ADF8023062
:10D3E4000022019201AB324629460DF1020001F000
:10D3F40035FEF8B901AB32462946201D01F02EFE58
:10D40400C0B901AB32462946A01D01F027FE88B9F8
:10D4140001AB3246294604F1080001F01FFE48B969
:10D4240001AB3246294604F10A0000F0CBFB08B9EF
:10D43400019B3B6003B0F0BD0E20FBE70720F9E73A
:10D44400F7B515461F46044698B392B38BB30388C9
:10D45400362B30D13E68ADF802300022019201AB88
:10D46400324629460DF1020001F0F8FDF8B901AB8E
:10D4740032462946201D01F0F1FDC0B901AB324608
:10D484002946A01D01F0EAFD88B901AB32462946C0
:10D4940004F1080001F0E2FD48B901AB3246294627
:10D4A40004F10A0000F0BAFB08B9019B3B6003B029
:10D4B400F0BD0E20FBE70720F9E7F7B515461F4638
:10D4C400044698B392B38BB30388312B30D13E68B2
:10D4D400ADF802300022019201AB324629460DF12B
:10D4E400020001F0BBFDF8B901AB32462946201D0C
:10D4F40001F0B4FDC0B901AB32462946A01D01F0CC
:10D50400ADFD88B901AB3246294604F1080001F0AB
:10D51400A5FD48B901AB3246294604F10A0000F0E2
:10D5240035FA08B9019B3B6003B0F0BD0E20FBE760
:10D534000720F9E7F7B515461F46044698B392B39A
:10D544008BB303883B2B30D13E68ADF80230002208
:10D55400019201AB324629460DF1020001F07EFD35
:10D56400F8B901AB32462946201D01F077FDC0B958
:10D5740001AB32462946A01D01F070FD88B901AB0C
:10D584003246294604F1080001F068FD48B901ABB0
:10D594003246294604F10A0000F064FB08B9019BF5
:10D5A4003B6003B0F0BD0E20FBE70720F9E7F7B5B9
:10D5B40015461F46044698B392B38BB30388382BA1
:10D5C40030D13E68ADF802300022019201AB324600
:10D5D40029460DF1020001F041FDF8B901AB3246D4
:10D5E4002946201D01F03AFDC0B901AB3246294657
:10D5F400A01D01F033FD88B901AB3246294604F180
:10D60400080001F02BFD48B901AB3246294604F16C
:10D614000A0000F031FB08B9019B3B6003B0F0BD88
:10D624000E20FBE70720F9E7F7B515461F46044629
:10D6340098B392B38BB303883A2B30D13E68ADF8DC
:10D6440002300022019201AB324629460DF102005C
:10D6540001F004FDF8B901AB32462946201D01F062
:10D66400FDFCC0B901AB32462946A01D01F0F6FC11
:10D6740088B901AB3246294604F1080001F0EEFCFA
:10D6840048B901AB3246294604F10A0000F020FBF8
:10D6940008B9019B3B6003B0F0BD0E20FBE70720F7
:10D6A400F9E7F7B515461F46044698B392B38BB312
:10D6B40003883C2B30D13E68ADF802300022019241
:10D6C40001AB324629460DF1020001F0C7FCF8B95E
:10D6D40001AB32462946201D01F0C0FCC0B901ABA4
:10D6E40032462946A01D01F0B9FC88B901AB324687
:10D6F400294604F1080001F0B1FC48B901AB3246F7
:10D70400294604F10A0001F0D8FC08B9019B3B60EA
:10D7140003B0F0BD0E20FBE70720F9E710B4019C2D
:10D7240010B1A44610BC60470E2010BC7047000026
:10D73400F7B5044617461D460E4691B18BB180B12C
:10D74400DFF828C0CDF800C0FFF7E8FF38B9064B72
:10D7540000933A462B463146201DFFF7DFFF03B006
:10D76400F0BD0E20FBE700BF75D70100DDF301001B
:10D774002DE9F041044617461D460E4661B15BB1E2
:10D7840050B101F06BFC40B92B463A463146A01C1F
:10D79400BDE8F04101F062BC0E20BDE8F08100005C
:10D7A400F7B5044617461D460E4671B16BB160B11C
:10D7B40001F054FC38B9064B00933A462B463146E7
:10D7C400A01CFFF7ABFF03B0F0BD0E20FBE700BFCA
:10D7D40035D70100F7B5044617461D460E4671B10C
:10D7E4006BB160B101F03AFC38B9064B00933A468C
:10D7F4002B463146A01CFFF791FF03B0F0BD0E206D
:10D80400FBE700BFDDF30100F7B5044617461D46EC
:10D814000E4671B16BB160B101F020FC38B9064B12
:10D8240000933A462B463146A01CFFF777FF03B01E
:10D83400F0BD0E20FBE700BF39F40100F7B5044644
:10D8440017461D460E4671B16BB160B101F006FC7E
:10D8540038B9064B00933A462B463146A01CFFF7D5
:10D864005DFF03B0F0BD0E20FBE700BFDDF3010058
:10D874002DE9F0410F4614461D46064660B15AB1E3
:10D8840053B101F0FCFB40B9AB1C2246394630468B
:10D89400BDE8F04101F0F3BB0E20BDE8F0810000CB
:10D8A400F0B5044685B017461D460E4669B363B30A
:10D8B40058B3DFF860C0CDF800C0FFF72FFF10BBEE
:10D8C400134B00933A462B463146201DFFF726FFA3
:10D8D400C8B9637904A8C3F3000300F8013D3A46CC
:10D8E4002B46314601F0E9FB68B92B463A463146EE
:10D8F400A01D01F0B3FB30B92B463A46314604F182
:10D90400080001F0ABFB05B0F0BD0E20FBE700BF43
:10D91400CFCB0100DDF30100F7B5044617461D46E1
:10D924000E46D1B1CBB1C0B101F098FB98B92B46EA
:10D934003A463146A01C01F091FB60B9618820464B
:10D944008B1C30F8041B009511FB03F132463B4657
:10D9540089B201F0E4FC03B0F0BD0E20FBE7F7B59B
:10D96400044617461D460E4671B16BB160B101F015
:10D9740075FB38B920463B4630F8021B0095324609
:10D9840001F0CDFC03B0F0BD0E20FBE72DE9F74F0D
:10D99400064692461F468946E9B1E3B1D8B101F083
:10D9A4005DFB044648B906F1020B05464FF00A0830
:10D9B4003388AB4208FB05B003D8204603B0BDE86A
:10D9C400F08F074B009352463B464946FFF7A6FEAD
:10D9D40018B90135ECE70E24EFE70446EDE700BF84
:10D9E400A5D70100F7B50F4615461C46064620B3D9
:10D9F4001AB313B301F06EFBE8B9631C2A46394627
:10DA0400304601F067FBB0B9A31C2A4639463046BC
:10DA140001F035FB78B9231D2A463946304601F01A
:10DA24002EFB40B9A31D00932A4604F1080339468E
:10DA3400304601F05DFC03B0F0BD0E20FBE70000B2
:10DA44002DE9F04F054685B091461F4688460029CA
:10DA540033D093B388B301F001FB0446B0B93B461D
:10DA64004A464146A81C01F028FB044670B9A9782F
:10DA7400144A154B012918BF1A460392064605F1AC
:10DA8400040A4FF0060B2B88B34203D8204605B096
:10DA9400BDE8F08FAB78012B1CBF122303FB06A05B
:10DAA400039B009308BF0BFB06A03B464A46414636
:10DAB400FFF734FE18B90136E5E70E24E6E704461D
:10DAC400E4E700BFD9D701000DD801002DE9F74FD5
:10DAD400064690461F468B46E9B1E3B1D8B101F042
:10DAE400BDFA044638B905464FF00A0906F1020AA0
:10DAF4003388AB4203D8204603B0BDE8F08F084B0F
:10DB0400009342463B46594609FB05A0FFF706FE33
:10DB140018B90135ECE70E24EDE70446EBE700BF46
:10DB2400A5D801002DE9F74F064690461F468B46BF
:10DB3400E9B1E3B1D8B101F091FA044638B9054628
:10DB44004FF0060906F1020A3388AB4203D8204697
:10DB540003B0BDE8F08F084B009342463B4659465C
:10DB640009FB05A0FFF7DAFD18B90135ECE70E242F
:10DB7400EDE70446EBE700BF41D80100F7B50446E2
:10DB840017461D460E46D9B1D3B1C8B101F066FAA5
:10DB9400A0B92B463A463146A01C01F08EFA68B96A
:10DBA4002B463A463146201D01F058FA30B9A18877
:10DBB40000953B463246A01D01F0B1FB03B0F0BD19
:10DBC4000E20FBE72DE9F74F064691461F4688468F
:10DBD400E9B1E3B1D8B101F041FA044638B9DFF84C
:10DBE40038B0054606F1020A3388AB4203D8204612
:10DBF40003B0BDE8F08FCDF800B03B464A4641463D
:10DC04000AEBC500FFF78AFD18B90135ECE70E24CD
:10DC1400EDE70446EBE700BF35D70100F7B504464E
:10DC240017461D460E46D9B1D3B1C8B101F016FA54
:10DC3400A0B92B463A463146A01C01F00FFA68B948
:10DC44002B463A463146201D01F008FA30B9A18826
:10DC540000953B463246A01D01F061FB03B0F0BDC8
:10DC64000E20FBE730B421B11BB110B130BC01F080
:10DC740024BA0E2030BC7047F7B5044617461D463B
:10DC84000E4619B313B308B301F0E8F9E0B92B4613
:10DC94003A463146A01C01F010FAA8B92B463A4680
:10DCA4003146201D01F0DAF970B92B463A46314667
:10DCB400A01D01F0D3F938B9E18800953B463246FE
:10DCC40004F1080001F02BFB03B0F0BD0E20FBE7CC
:10DCD40030B421B11BB110B130BC01F0BFB90E207A
:10DCE40030BC704730B420B11AB113B130BC01F06C
:10DCF400F1B90E2030BC7047F0B50D4685B01F4613
:10DD0400064638B311B9072005B0F0BD0378B42B2B
:10DD1400F9D104AC012344F8043D1346224601F032
:10DD2400AEF90028F0D100903B4622462946304601
:10DD340001F092FC0028E7D100900A9B2246294674
:10DD4400304601F089FC0028DED1039BAB4218BFAA
:10DD54000920D9E70E20D7E7F0B587B01446039021
:10DD64001F460E4600292ED06AB30023156805937A
:10DD7400B4238DF813302A4605AB0DF1130001F0DE
:10DD84009CF9F0B905AB2A46314603A801F039F9EC
:10DD9400B8B9039B13B1059B236012E00B4B0093AE
:10DDA4002A4605AB3146384601F039FC48B9084BE0
:10DDB40000932A4605AB31460C9801F030FC00284C
:10DDC400E9D007B0F0BD0E20FBE700BFDDF3010092
:10DDD4004BEB0100F0B50D4685B01F460646002802
:10DDE40032D011B9072005B0F0BD0378AA2BF9D1C0
:10DDF40004AC012344F8043D1346224601F03FF9E4
:10DE04000028F0D1114B009322463B462946304668
:10DE140001F022FC0028E6D10D4B009322460A9B18
:10DE24002946304601F018FC0028DCD100900B9BF9
:10DE340022462946304601F00FFC0028D3D1039B2B
:10DE4400AB4218BF0920CEE70E20CCE775EC0100E9
:10DE54002DED0100F0B587B0144603901F460E4621
:10DE640029B322B3002315680593AA238DF8133030
:10DE74002A4605AB0DF1130001F01FF9A8B905AB53
:10DE84002A46314603A801F0BCF870B9039B13B1CC
:10DE9400059B236009E0074B00932A4605AB3146F6
:10DEA400384601F0BCFB0028F2D007B0F0BD0E20CC
:10DEB400FBE700BFA1ED0100F0B50D4685B01F469C
:10DEC400064640B311B9072005B0F0BD0378AB2B6B
:10DED400F9D104AC012344F8043D1346224601F071
:10DEE400CEF80028F0D10D4B009322463B4629463C
:10DEF400304601F0B1FB0028E6D100900A9B22468F
:10DF04002946304601F0A8FB0028DDD1039BAB4233
:10DF140018BF0920D8E70E20D6E700BF2DED010079
:10DF2400F0B587B0144603901F460E4629B322B3BA
:10DF3400002315680593AB238DF813302A4605ABEF
:10DF44000DF1130001F0B9F8A8B905AB2A46314622
:10DF540003A801F056F870B9039B13B1059B236025
:10DF640009E0074B00932A4605AB3146384601F0D9
:10DF740056FB0028F2D007B0F0BD0E20FBE700BF2F
:10DF840061F00100F0B50D4685B01F460646F8B1B4
:10DF940011B9072005B0F0BD0378AE2BF9D104AC5C
:10DFA400012344F8043D1346224601F068F8002892
:10DFB400F0D1084B009322463B462946304601F0F7
:10DFC4004BFB0028E6D1039BAB4218BF0920E1E7D5
:10DFD4000E20DFE7EDED0100F0B587B014460390A5
:10DFE4001F460E4629B322B3002315680593AE23BA
:10DFF4008DF813302A4605AB0DF1130001F05DF8DE
:10E00400A8B905AB2A46314603A800F0FAFF70B957
:10E01400039B13B1059B236009E0074B00932A4639
:10E0240005AB3146384601F0FAFA0028F2D007B0C1
:10E03400F0BD0E20FBE700BF61F00100F0B50D4616
:10E0440085B01F46064630B311B9072005B0F0BDB0
:10E054000378A92BF9D104AC012344F8043D1346F9
:10E06400224601F00CF80028F0D13B46224629460E
:10E07400304601F004F80028E8D100900A9B2246BB
:10E084002946304601F0E8FA0028DFD1039B9D427F
:10E0940018BF0920DAE70E20D8E70000F0B587B0F2
:10E0A400144603901F460E4629B322B30023156875
:10E0B4000593A9238DF813302A4605AB0DF11300FF
:10E0C40000F0FBFFA8B905AB2A46314603A800F0CF
:10E0D40098FF70B9039B13B1059B236009E0074BBC
:10E0E40000932A4605AB3146384601F098FA0028D9
:10E0F400F2D007B0F0BD0E20FBE700BF61F00100D5
:10E1040030B5134685B00C46A8B111B9072005B047
:10E1140030BD0278B32AF9D104AA012542F8045D7E
:10E124000025009501F098FA0028F0D1039BA34242
:10E1340018BF0920EBE70E20E9E70000F0B587B02F
:10E14400144603901F460E4629B322B300231568D4
:10E154000593B3238DF813302A4605AB0DF1130054
:10E1640000F0ABFFA8B905AB2A46314603A800F07E
:10E1740048FF70B9039B13B1059B236009E0074B6B
:10E1840000932A4605AB3146384601F048FA002888
:10E19400F2D007B0F0BD0E20FBE700BF61F0010034
:10E1A400F0B50D4685B01F460646F8B111B90720F3
:10E1B40005B0F0BD0378B02BF9D104AC012344F8C9
:10E1C400043D1346224600F05AFF0028F0D1084BC4
:10E1D400009322463B462946304601F03DFA00288A
:10E1E400E6D1039BAB4218BF0920E1E70E20DFE72D
:10E1F400A5EE010013460A460146B02000F0EBBE2E
:10E20400F0B50D4685B01F46064640B311B9072048
:10E2140005B0F0BD0378A82BF9D104AC012344F870
:10E22400043D1346224600F055FF0028F0D10D4B63
:10E23400009322463B462946304601F00DFA002859
:10E24400E6D100900A9B22462946304601F004FAA2
:10E254000028DDD1039BAB4218BF0920D8E70E206C
:10E26400D6E700BF0BF40100F0B587B01446039065
:10E274001F460E4629B322B3002315680593A8232D
:10E284008DF813302A4605AB0DF1130000F015FF8D
:10E29400A8B905AB2A46314603A800F0B2FE70B90E
:10E2A400039B13B1059B236009E0074B00932A46A7
:10E2B40005AB3146384601F0B2F90028F2D007B078
:10E2C400F0BD0E20FBE700BF61F00100F7B50D467D
:10E2D4001F46064628B311B9072003B0F0BD0378E2
:10E2E400AF2BF9D102AC012344F8043D1346224676
:10E2F40000F0C5FE0028F0D13B46224629463046B0
:10E3040000F0BDFE0028E8D1089B2246294630468D
:10E3140000F0B5FE0028E0D1019BAB4218BF0920F4
:10E32400DBE70E20D9E713460A460146AF2000F08A
:10E3340052BE0000F0B50D4685B01F4606460028C3
:10E3440030D011B9072005B0F0BD0378B22BF9D154
:10E3540004AC012344F8043D1346224600F08FFE2A
:10E364000028F0D1104B009322460A9B29463046E0
:10E3740001F072F90028E6D100903B462246294676
:10E38400304601F069F90028DDD10B9B224629466D
:10E39400304600F050FE0028D5D1039BAB4218BF95
:10E3A4000920D0E70E20CEE783F001002DE9F047E5
:10E3B40086B0174603909A46DDF8389088460029BF
:10E3C4003AD0002A38D000231568059305AEB2234D
:10E3D4008DF813302A4633460DF1130000F06DFE1C
:10E3E400044658B933462A46414603A800F009FEBC
:10E3F400044618B9039B2BB1059B3B60204606B02D
:10E40400BDE8F0870D4B00932A4633464146484603
:10E4140001F005F904460028F0D1B9F1000FEBD062
:10E42400B9F8001000962B464246504600F0D1FE43
:10E434000028E1D00446E1E70E24DFE761F00100A3
:10E44400F0B50D4685B01F46064638B311B907200E
:10E4540005B0F0BD0378B12BF9D104AC012344F825
:10E46400043D1346224600F00AFE0028F0D10A9B20
:10E47400009322463B462946304600F039FF0028E7
:10E48400E6D10B9B22462946304600F0D4FD0028F5
:10E49400DED1039BAB4218BF0920D9E70E20D7E792
:10E4A40013460A460146B12000F095BD2DE9F0431C
:10E4B40085B00E469946DDF83080074600284AD0DC
:10E4C40021B90724204605B0BDE8F0830378AD2BBD
:10E4D400F7D104AD012345F8043D13462A4600F064
:10E4E400CEFD04460028EDD14B462A463146384637
:10E4F40000F0C5FD04460028E4D1009043462A46B6
:10E504003146384601F0A8F804460028DAD1D8F894
:10E51400003023B9039B9E4218BF0924D2E702337B
:10E524002A463146384600F0AAFD90B9D8F80030A2
:10E534002A463146384600F0A2FD50B9D8F80030DA
:10E54400009404332A463146384601F085F8002801
:10E55400E0D00446B6E70E24B4E70000F0B587B077
:10E56400144603901F460E4629B322B300231568B0
:10E574000593AD238DF813302A4605AB0DF1130036
:10E5840000F09BFDA8B905AB2A46314603A800F06C
:10E5940038FD70B9039B13B1059B236009E0074B59
:10E5A40000932A4605AB3146384601F038F8002876
:10E5B400F2D007B0F0BD0E20FBE700BFDFEE010094
:10E5C400F0B50D4685B01F46064638B311B907208D
:10E5D40005B0F0BD0378AC2BF9D104AC012344F8A9
:10E5E400043D1346224600F04AFD0028F0D13B4684
:10E5F40022462946304600F042FD0028E8D1084B67
:10E60400009322460A9B2946304601F025F800284B
:10E61400DED1039B9D4218BF0920D9E70E20D7E71E
:10E624000DEF0100F0B587B0144603901F460E4667
:10E6340029B322B3002315680593AC238DF8133056
:10E644002A4605AB0DF1130000F037FDA8B905AB60
:10E654002A46314603A800F0D4FC70B9039B13B1D9
:10E66400059B236009E0074B00932A4605AB31461E
:10E67400384600F0D4FF0028F2D007B0F0BD0E20D9
:10E68400FBE700BFDFEE0100F7B50D461F46064667
:10E69400E8B111B9072003B0F0BD0378B52BF9D167
:10E6A40002AC012344F8043D1346224600F0E7FC83
:10E6B4000028F0D13B4622462946304600F0DFFCD4
:10E6C4000028E8D1019B9D4218BF0920E3E70E20F2
:10E6D400E1E713460A460146B52000F07CBC000081
:10E6E4002DE9F043164687B01F46054600284BD057
:10E6F400002A49D0002B47D00388512B46D1D7F8A4
:10E704000090ADF80E3000220DF11008049243463B
:10E714004A4631460DF10E0000F0A0FC044660BBF1
:10E7240043464A463146281D00F098FC044620BB67
:10E7340043464A463146A81D00F08CFB0446E0B926
:10E74400AB79022B1DD1AB7B03F0FD03042B18D155
:10E7540005A9A88801F07AF8052812D00C4B059871
:10E764004C2202FB003032460189CDF800803B6820
:10E77400406800F057FD20B10446204607B0BDE8CC
:10E78400F083049B3B60F8E70E24F6E70724F4E7E4
:10E7940010390020F7B515461E46044618B312B3C7
:10E7A4000BB30388532B20D13768ADF80230002215
:10E7B400019201AB3A4629460DF1020000F04EFCED
:10E7C40078B901AB3A462946201D00F047FC40B910
:10E7D40001AB3A462946A01D00F0B7FB08B9019BDE
:10E7E400336003B0F0BD0E20FBE70720F9E7F7B56F
:10E7F40016461C460546E0B1DAB1D3B10388542B62
:10E8040019D12768ADF802300022019201AB3A46D3
:10E8140031460DF1020000F021FC40B901AB3A464B
:10E824003146281D00F01AFC08B9019B236003B08F
:10E83400F0BD0E20FBE70720F9E7F7B515461E46A5
:10E84400044618B312B30BB30388522B20D1376894
:10E85400ADF802300022019201AB3A4629460DF18F
:10E86400020000F0FBFB78B901AB3A462946201DB3
:10E8740000F0F4FB40B901AB3A462946A01D00F074
:10E884006EFB08B9019B336003B0F0BD0E20FBE7BB
:10E894000720F9E7F7B515461E46044618B312B328
:10E8A4000BB30388562B20D13768ADF80230002211
:10E8B400019201AB3A4629460DF1020000F0CEFB6D
:10E8C40078B901AB3A462946201D00F0C7FB40B990
:10E8D40001AB3A462946A01D00F04BFB08B9019B49
:10E8E400336003B0F0BD0E20FBE70720F9E700001A
:10E8F4002DE9F043164687B099460546002849D0CD
:10E90400002A47D0002B45D00388502B44D1D9F896
:10E914000070ADF80E3000220DF110080492434649
:10E924003A4631460DF10E0000F098FB044648BB10
:10E9340043463A463146281D00F090FB044608BB86
:10E9440043463A463146A81D00F055F90446C8B975
:10E954002B7B012B01D0062B18D105A9A88800F028
:10E9640075FF052812D00D4B05984C2202FB003090
:10E974003B460189CDF800803246406800F052FCE5
:10E9840020B10446204607B0BDE8F083049BC9F8D3
:10E994000030F7E70E24F5E70724F3E710390020E9
:10E9A400F7B515461E46044618B312B30BB30388D5
:10E9B400552B20D13768ADF802300022019201AB0B
:10E9C4003A4629460DF1020000F048FB78B901AB44
:10E9D4003A462946201D00F041FB40B901AB3A46B6
:10E9E4002946A01D00F0A7FA08B9019B336003B0C3
:10E9F400F0BD0E20FBE70720F9E7F7B515461E46E4
:10EA0400044618B312B30BB30388572B20D13768CD
:10EA1400ADF802300022019201AB3A4629460DF1CD
:10EA2400020000F01BFB78B901AB3A462946201DD1
:10EA340000F014FB40B901AB3A462946A01D00F092
:10EA44003CFB08B9019B336003B0F0BD0E20FBE72B
:10EA54000720F9E72DE9F0410F4614461D46064606
:10EA640008B302B3FBB100F035FBE8B96B1C2246D6
:10EA74003946304600F02EFBB0B9AB1C224639466D
:10EA8400304600F0FCFA78B92B1D22463946304650
:10EA940000F020FB40B9AB1D224639463046BDE8A4
:10EAA400F04100F0ECBA0E20BDE8F081F0B50F465D
:10EAB40085B015461C46064628B322B31BB300F0A6
:10EAC400DEFAF0B90DF10F032A463946304600F05C
